{
  "_format": "hh-sol-artifact-1",
  "contractName": "InvestmentClub",
  "sourceName": "contracts/InvestmentClub.sol",
  "abi": [
    {
      "inputs": [],
      "stateMutability": "nonpayable",
      "type": "constructor"
    },
    {
      "inputs": [
        {
          "internalType": "uint256",
          "name": "clubId",
          "type": "uint256"
        },
        {
          "internalType": "uint256",
          "name": "proposalId",
          "type": "uint256"
        }
      ],
      "name": "closeProposal",
      "outputs": [],
      "stateMutability": "nonpayable",
      "type": "function"
    },
    {
      "inputs": [
        {
          "internalType": "uint256",
          "name": "clubId",
          "type": "uint256"
        }
      ],
      "name": "contributeToClub",
      "outputs": [],
      "stateMutability": "payable",
      "type": "function"
    },
    {
      "inputs": [
        {
          "internalType": "string",
          "name": "name",
          "type": "string"
        },
        {
          "internalType": "string",
          "name": "Cid",
          "type": "string"
        }
      ],
      "name": "createClub",
      "outputs": [
        {
          "internalType": "uint256",
          "name": "",
          "type": "uint256"
        }
      ],
      "stateMutability": "nonpayable",
      "type": "function"
    },
    {
      "inputs": [
        {
          "internalType": "uint256",
          "name": "clubId",
          "type": "uint256"
        },
        {
          "internalType": "uint256",
          "name": "amount",
          "type": "uint256"
        },
        {
          "internalType": "address",
          "name": "destination",
          "type": "address"
        },
        {
          "internalType": "string",
          "name": "description",
          "type": "string"
        }
      ],
      "name": "createProposal",
      "outputs": [],
      "stateMutability": "nonpayable",
      "type": "function"
    },
    {
      "inputs": [
        {
          "internalType": "uint256",
          "name": "clubId",
          "type": "uint256"
        },
        {
          "internalType": "uint256",
          "name": "proposalId",
          "type": "uint256"
        }
      ],
      "name": "executeProposal",
      "outputs": [],
      "stateMutability": "payable",
      "type": "function"
    },
    {
      "inputs": [
        {
          "internalType": "address",
          "name": "userAddress",
          "type": "address"
        },
        {
          "internalType": "uint256",
          "name": "clubId",
          "type": "uint256"
        }
      ],
      "name": "getBalanceByClub",
      "outputs": [
        {
          "internalType": "uint256",
          "name": "",
          "type": "uint256"
        }
      ],
      "stateMutability": "view",
      "type": "function"
    },
    {
      "inputs": [
        {
          "internalType": "uint256",
          "name": "clubId",
          "type": "uint256"
        }
      ],
      "name": "getClubById",
      "outputs": [
        {
          "components": [
            {
              "internalType": "uint256",
              "name": "clubId",
              "type": "uint256"
            },
            {
              "internalType": "string",
              "name": "name",
              "type": "string"
            },
            {
              "internalType": "uint256",
              "name": "memberCount",
              "type": "uint256"
            },
            {
              "internalType": "uint256",
              "name": "proposalCount",
              "type": "uint256"
            },
            {
              "internalType": "uint256",
              "name": "pool",
              "type": "uint256"
            },
            {
              "internalType": "string",
              "name": "CID",
              "type": "string"
            },
            {
              "internalType": "string",
              "name": "posdiverification",
              "type": "string"
            },
            {
              "internalType": "uint256",
              "name": "DealId",
              "type": "uint256"
            }
          ],
          "internalType": "struct InvestmentClub.ClubInfo",
          "name": "",
          "type": "tuple"
        }
      ],
      "stateMutability": "view",
      "type": "function"
    },
    {
      "inputs": [],
      "name": "getMyClubs",
      "outputs": [
        {
          "components": [
            {
              "internalType": "uint256",
              "name": "clubId",
              "type": "uint256"
            },
            {
              "internalType": "string",
              "name": "name",
              "type": "string"
            },
            {
              "internalType": "uint256",
              "name": "memberCount",
              "type": "uint256"
            },
            {
              "internalType": "uint256",
              "name": "proposalCount",
              "type": "uint256"
            },
            {
              "internalType": "uint256",
              "name": "pool",
              "type": "uint256"
            },
            {
              "internalType": "string",
              "name": "CID",
              "type": "string"
            },
            {
              "internalType": "string",
              "name": "posdiverification",
              "type": "string"
            },
            {
              "internalType": "uint256",
              "name": "DealId",
              "type": "uint256"
            }
          ],
          "internalType": "struct InvestmentClub.ClubInfo[]",
          "name": "",
          "type": "tuple[]"
        }
      ],
      "stateMutability": "view",
      "type": "function"
    },
    {
      "inputs": [
        {
          "internalType": "uint256",
          "name": "clubId",
          "type": "uint256"
        },
        {
          "internalType": "uint256",
          "name": "proposalId",
          "type": "uint256"
        }
      ],
      "name": "getProposalById",
      "outputs": [
        {
          "components": [
            {
              "internalType": "uint256",
              "name": "id",
              "type": "uint256"
            },
            {
              "internalType": "address",
              "name": "creator",
              "type": "address"
            },
            {
              "internalType": "uint256",
              "name": "amount",
              "type": "uint256"
            },
            {
              "internalType": "address",
              "name": "destination",
              "type": "address"
            },
            {
              "internalType": "string",
              "name": "status",
              "type": "string"
            },
            {
              "internalType": "string",
              "name": "description",
              "type": "string"
            },
            {
              "internalType": "uint256",
              "name": "votesFor",
              "type": "uint256"
            },
            {
              "internalType": "uint256",
              "name": "votesAgainst",
              "type": "uint256"
            },
            {
              "internalType": "uint256",
              "name": "proposedAt",
              "type": "uint256"
            },
            {
              "internalType": "uint256",
              "name": "proposalExpireAt",
              "type": "uint256"
            }
          ],
          "internalType": "struct InvestmentClub.ProposalInfo",
          "name": "",
          "type": "tuple"
        }
      ],
      "stateMutability": "view",
      "type": "function"
    },
    {
      "inputs": [
        {
          "internalType": "uint256",
          "name": "clubId",
          "type": "uint256"
        }
      ],
      "name": "getProposalsByClub",
      "outputs": [
        {
          "components": [
            {
              "internalType": "uint256",
              "name": "id",
              "type": "uint256"
            },
            {
              "internalType": "address",
              "name": "creator",
              "type": "address"
            },
            {
              "internalType": "uint256",
              "name": "amount",
              "type": "uint256"
            },
            {
              "internalType": "address",
              "name": "destination",
              "type": "address"
            },
            {
              "internalType": "string",
              "name": "status",
              "type": "string"
            },
            {
              "internalType": "string",
              "name": "description",
              "type": "string"
            },
            {
              "internalType": "uint256",
              "name": "votesFor",
              "type": "uint256"
            },
            {
              "internalType": "uint256",
              "name": "votesAgainst",
              "type": "uint256"
            },
            {
              "internalType": "uint256",
              "name": "proposedAt",
              "type": "uint256"
            },
            {
              "internalType": "uint256",
              "name": "proposalExpireAt",
              "type": "uint256"
            }
          ],
          "internalType": "struct InvestmentClub.ProposalInfo[]",
          "name": "",
          "type": "tuple[]"
        }
      ],
      "stateMutability": "view",
      "type": "function"
    },
    {
      "inputs": [
        {
          "internalType": "address",
          "name": "sender",
          "type": "address"
        },
        {
          "internalType": "uint256",
          "name": "proposalId",
          "type": "uint256"
        },
        {
          "internalType": "uint256",
          "name": "clubId",
          "type": "uint256"
        }
      ],
      "name": "hasVoted",
      "outputs": [
        {
          "internalType": "bool",
          "name": "",
          "type": "bool"
        }
      ],
      "stateMutability": "view",
      "type": "function"
    },
    {
      "inputs": [
        {
          "internalType": "uint256",
          "name": "clubId",
          "type": "uint256"
        }
      ],
      "name": "isClubFull",
      "outputs": [
        {
          "internalType": "bool",
          "name": "",
          "type": "bool"
        }
      ],
      "stateMutability": "view",
      "type": "function"
    },
    {
      "inputs": [
        {
          "internalType": "uint256",
          "name": "clubId",
          "type": "uint256"
        }
      ],
      "name": "isClubIdExist",
      "outputs": [
        {
          "internalType": "bool",
          "name": "",
          "type": "bool"
        }
      ],
      "stateMutability": "view",
      "type": "function"
    },
    {
      "inputs": [
        {
          "internalType": "address",
          "name": "memberAddress",
          "type": "address"
        },
        {
          "internalType": "uint256",
          "name": "clubId",
          "type": "uint256"
        }
      ],
      "name": "isMemberOfClub",
      "outputs": [
        {
          "internalType": "bool",
          "name": "",
          "type": "bool"
        }
      ],
      "stateMutability": "view",
      "type": "function"
    },
    {
      "inputs": [
        {
          "internalType": "uint256",
          "name": "proposalId",
          "type": "uint256"
        },
        {
          "internalType": "uint256",
          "name": "clubId",
          "type": "uint256"
        }
      ],
      "name": "isProposalIdExist",
      "outputs": [
        {
          "internalType": "bool",
          "name": "",
          "type": "bool"
        }
      ],
      "stateMutability": "view",
      "type": "function"
    },
    {
      "inputs": [
        {
          "internalType": "uint256",
          "name": "clubId",
          "type": "uint256"
        }
      ],
      "name": "joinClub",
      "outputs": [],
      "stateMutability": "nonpayable",
      "type": "function"
    },
    {
      "inputs": [
        {
          "internalType": "uint256",
          "name": "clubId",
          "type": "uint256"
        }
      ],
      "name": "leaveClub",
      "outputs": [],
      "stateMutability": "nonpayable",
      "type": "function"
    },
    {
      "inputs": [],
      "name": "listClubs",
      "outputs": [
        {
          "components": [
            {
              "internalType": "uint256",
              "name": "clubId",
              "type": "uint256"
            },
            {
              "internalType": "string",
              "name": "name",
              "type": "string"
            },
            {
              "internalType": "uint256",
              "name": "memberCount",
              "type": "uint256"
            },
            {
              "internalType": "uint256",
              "name": "proposalCount",
              "type": "uint256"
            },
            {
              "internalType": "uint256",
              "name": "pool",
              "type": "uint256"
            },
            {
              "internalType": "string",
              "name": "CID",
              "type": "string"
            },
            {
              "internalType": "string",
              "name": "posdiverification",
              "type": "string"
            },
            {
              "internalType": "uint256",
              "name": "DealId",
              "type": "uint256"
            }
          ],
          "internalType": "struct InvestmentClub.ClubInfo[]",
          "name": "",
          "type": "tuple[]"
        }
      ],
      "stateMutability": "view",
      "type": "function"
    },
    {
      "inputs": [
        {
          "internalType": "uint256",
          "name": "clubId",
          "type": "uint256"
        }
      ],
      "name": "verifiydocs",
      "outputs": [],
      "stateMutability": "nonpayable",
      "type": "function"
    },
    {
      "inputs": [
        {
          "internalType": "uint256",
          "name": "clubId",
          "type": "uint256"
        },
        {
          "internalType": "uint256",
          "name": "proposalId",
          "type": "uint256"
        },
        {
          "internalType": "bool",
          "name": "vote",
          "type": "bool"
        }
      ],
      "name": "voteOnProposal",
      "outputs": [],
      "stateMutability": "nonpayable",
      "type": "function"
    }
  ],
  "bytecode": "0x608060405234801561001057600080fd5b506000600181905550614039806100286000396000f3fe60806040526004361061011f5760003560e01c80635ff847fb116100a0578063c3741fed11610064578063c3741fed14610401578063c46708781461043e578063e15427421461047b578063e7613ea8146104a4578063eec8e0db146104cd5761011f565b80635ff847fb1461030a5780636764fd48146103355780637945d63c1461037257806382b7661b1461039b578063890e2456146103c45761011f565b806334fa3d83116100e757806334fa3d831461021357806335a1930f146102505780634d7f75c31461028d578063549710be146102b657806354a2e233146102e15761011f565b8063058694a9146101245780630ee294041461016157806314204fc61461019e5780631ab76712146101db578063288509b4146101f7575b600080fd5b34801561013057600080fd5b5061014b6004803603810190610146919061294a565b61050a565b6040516101589190612c03565b60405180910390f35b34801561016d57600080fd5b5061018860048036038101906101839190612c51565b610828565b6040516101959190612cbf565b60405180910390f35b3480156101aa57600080fd5b506101c560048036038101906101c09190612cda565b6108a7565b6040516101d29190612dfb565b60405180910390f35b6101f560048036038101906101f09190612cda565b610b63565b005b610211600480360381019061020c919061294a565b610ebf565b005b34801561021f57600080fd5b5061023a60048036038101906102359190612e1d565b611029565b6040516102479190612cbf565b60405180910390f35b34801561025c57600080fd5b5061027760048036038101906102729190612f92565b6110d8565b6040516102849190613019565b60405180910390f35b34801561029957600080fd5b506102b460048036038101906102af919061294a565b611281565b005b3480156102c257600080fd5b506102cb6113bb565b6040516102d891906131b4565b60405180910390f35b3480156102ed57600080fd5b5061030860048036038101906103039190613202565b61168d565b005b34801561031657600080fd5b5061031f611964565b60405161032c91906131b4565b60405180910390f35b34801561034157600080fd5b5061035c6004803603810190610357919061294a565b611c1b565b6040516103699190612cbf565b60405180910390f35b34801561037e57600080fd5b5061039960048036038101906103949190613255565b611c3d565b005b3480156103a757600080fd5b506103c260048036038101906103bd919061294a565b611eaa565b005b3480156103d057600080fd5b506103eb60048036038101906103e69190612e1d565b611f5a565b6040516103f89190613019565b60405180910390f35b34801561040d57600080fd5b506104286004803603810190610423919061294a565b611fc5565b6040516104359190613396565b60405180910390f35b34801561044a57600080fd5b506104656004803603810190610460919061294a565b61222b565b6040516104729190612cbf565b60405180910390f35b34801561048757600080fd5b506104a2600480360381019061049d919061294a565b61224d565b005b3480156104b057600080fd5b506104cb60048036038101906104c69190612cda565b612424565b005b3480156104d957600080fd5b506104f460048036038101906104ef9190612cda565b61265b565b6040516105019190612cbf565b60405180910390f35b606061051582611c1b565b610554576040517f08c379a000000000000000000000000000000000000000000000000000000000815260040161054b90613415565b60405180910390fd5b600080600084815260200190815260200160002090506000816006015467ffffffffffffffff81111561058a57610589612e67565b5b6040519080825280602002602001820160405280156105c357816020015b6105b0612799565b8152602001906001900390816105a85790505b509050600080600190505b8360060154811161081c5760008460050160008381526020019081526020016000209050604051806101400160405280826000015481526020018260010160009054906101000a900473ffffffffffffffffffffffffffffffffffffffff1673ffffffffffffffffffffffffffffffffffffffff168152602001826002015481526020018260030160009054906101000a900473ffffffffffffffffffffffffffffffffffffffff1673ffffffffffffffffffffffffffffffffffffffff1681526020018260040180546106a190613464565b80601f01602080910402602001604051908101604052809291908181526020018280546106cd90613464565b801561071a5780601f106106ef5761010080835404028352916020019161071a565b820191906000526020600020905b8154815290600101906020018083116106fd57829003601f168201915b5050505050815260200182600501805461073390613464565b80601f016020809104026020016040519081016040528092919081815260200182805461075f90613464565b80156107ac5780601f10610781576101008083540402835291602001916107ac565b820191906000526020600020905b81548152906001019060200180831161078f57829003601f168201915b5050505050815260200182600601548152602001826007015481526020018260080154815260200182600901548152508484815181106107ef576107ee613496565b5b60200260200101819052508280610805906134f4565b935050508080610814906134f4565b9150506105ce565b50819350505050919050565b6000806000838152602001908152602001600020600501600084815260200190815260200160002060100160008573ffffffffffffffffffffffffffffffffffffffff1673ffffffffffffffffffffffffffffffffffffffff16815260200190815260200160002060009054906101000a900460ff1690509392505050565b6108af612799565b6108b883611c1b565b6108f7576040517f08c379a00000000000000000000000000000000000000000000000000000000081526004016108ee90613589565b60405180910390fd5b610901828461265b565b610940576040517f08c379a0000000000000000000000000000000000000000000000000000000008152600401610937906135f5565b60405180910390fd5b6000806000858152602001908152602001600020600501600084815260200190815260200160002090506000604051806101400160405280836000015481526020018360010160009054906101000a900473ffffffffffffffffffffffffffffffffffffffff1673ffffffffffffffffffffffffffffffffffffffff168152602001836002015481526020018360030160009054906101000a900473ffffffffffffffffffffffffffffffffffffffff1673ffffffffffffffffffffffffffffffffffffffff168152602001836004018054610a1b90613464565b80601f0160208091040260200160405190810160405280929190818152602001828054610a4790613464565b8015610a945780601f10610a6957610100808354040283529160200191610a94565b820191906000526020600020905b815481529060010190602001808311610a7757829003601f168201915b50505050508152602001836005018054610aad90613464565b80601f0160208091040260200160405190810160405280929190818152602001828054610ad990613464565b8015610b265780601f10610afb57610100808354040283529160200191610b26565b820191906000526020600020905b815481529060010190602001808311610b0957829003601f168201915b5050505050815260200183600601548152602001836007015481526020018360080154815260200183600901548152509050809250505092915050565b610b6c82611c1b565b610bab576040517f08c379a0000000000000000000000000000000000000000000000000000000008152600401610ba290613589565b60405180910390fd5b610bb58282612692565b15610bf5576040517f08c379a0000000000000000000000000000000000000000000000000000000008152600401610bec90613687565b60405180910390fd5b610bff82826126cd565b610c3e576040517f08c379a0000000000000000000000000000000000000000000000000000000008152600401610c3590613719565b60405180910390fd5b60008060008481526020019081526020016000209050610c5e3384611029565b610c9d576040517f08c379a0000000000000000000000000000000000000000000000000000000008152600401610c9490613785565b60405180910390fd5b610ca7828461265b565b610ce6576040517f08c379a0000000000000000000000000000000000000000000000000000000008152600401610cdd906135f5565b60405180910390fd5b610cf0838361270c565b610d2f576040517f08c379a0000000000000000000000000000000000000000000000000000000008152600401610d2690613817565b60405180910390fd5b60008160050160008481526020019081526020016000209050806002015482600401541015610d93576040517f08c379a0000000000000000000000000000000000000000000000000000000008152600401610d8a906138a9565b60405180910390fd5b8060070154816006015411610ddd576040517f08c379a0000000000000000000000000000000000000000000000000000000008152600401610dd49061393b565b60405180910390fd5b6040518060400160405280600881526020017f4578656375746564000000000000000000000000000000000000000000000000815250816004019080519060200190610e2a929190612818565b508060020154826004016000828254610e43919061395b565b925050819055508060030160009054906101000a900473ffffffffffffffffffffffffffffffffffffffff1673ffffffffffffffffffffffffffffffffffffffff166108fc82600201549081150290604051600060405180830381858888f19350505050158015610eb8573d6000803e3d6000fd5b5050505050565b610ec881611c1b565b610f07576040517f08c379a0000000000000000000000000000000000000000000000000000000008152600401610efe90613589565b60405180910390fd5b60008060008381526020019081526020016000209050610f273383611029565b610f66576040517f08c379a0000000000000000000000000000000000000000000000000000000008152600401610f5d90613785565b60405180910390fd5b60003411610fa9576040517f08c379a0000000000000000000000000000000000000000000000000000000008152600401610fa090613a01565b60405180910390fd5b60008160020160003373ffffffffffffffffffffffffffffffffffffffff1673ffffffffffffffffffffffffffffffffffffffff1681526020019081526020016000209050348160010160008282546110029190613a21565b925050819055503482600401600082825461101d9190613a21565b92505081905550505050565b60008073ffffffffffffffffffffffffffffffffffffffff1660008084815260200190815260200160002060020160008573ffffffffffffffffffffffffffffffffffffffff1673ffffffffffffffffffffffffffffffffffffffff16815260200190815260200160002060000160009054906101000a900473ffffffffffffffffffffffffffffffffffffffff1673ffffffffffffffffffffffffffffffffffffffff161415905092915050565b600080600180546110e99190613a21565b90506000806000838152602001908152602001600020905081816000018190555084816001019080519060200190611122929190612818565b5060008160040181905550600081600601819055506001816003018190555083816007019080519060200190611159929190612818565b506040518060400160405280600b81526020017f556e2d56657269666965640000000000000000000000000000000000000000008152508160080190805190602001906111a7929190612818565b50600060405180604001604052803373ffffffffffffffffffffffffffffffffffffffff16815260200160008152509050808260020160003373ffffffffffffffffffffffffffffffffffffffff1673ffffffffffffffffffffffffffffffffffffffff16815260200190815260200160002060008201518160000160006101000a81548173ffffffffffffffffffffffffffffffffffffffff021916908373ffffffffffffffffffffffffffffffffffffffff160217905550602082015181600101559050508260018190555082935050505092915050565b61128a81611c1b565b6112c9576040517f08c379a00000000000000000000000000000000000000000000000000000000081526004016112c090613589565b60405180910390fd5b600080600083815260200190815260200160002090506112e93383611029565b611328576040517f08c379a000000000000000000000000000000000000000000000000000000000815260040161131f90613785565b60405180910390fd5b600181600301600082825461133d919061395b565b925050819055508060020160003373ffffffffffffffffffffffffffffffffffffffff1673ffffffffffffffffffffffffffffffffffffffff168152602001908152602001600020600080820160006101000a81549073ffffffffffffffffffffffffffffffffffffffff0219169055600182016000905550505050565b6060600060015467ffffffffffffffff8111156113db576113da612e67565b5b60405190808252806020026020018201604052801561141457816020015b61140161289e565b8152602001906001900390816113f95790505b509050600080600190505b6001548111611684576000806000838152602001908152602001600020905061144c338260000154611029565b15611670576040518061010001604052808260000154815260200182600101805461147690613464565b80601f01602080910402602001604051908101604052809291908181526020018280546114a290613464565b80156114ef5780601f106114c4576101008083540402835291602001916114ef565b820191906000526020600020905b8154815290600101906020018083116114d257829003601f168201915b5050505050815260200182600301548152602001826006015481526020018260040154815260200182600701805461152690613464565b80601f016020809104026020016040519081016040528092919081815260200182805461155290613464565b801561159f5780601f106115745761010080835404028352916020019161159f565b820191906000526020600020905b81548152906001019060200180831161158257829003601f168201915b505050505081526020018260080180546115b890613464565b80601f01602080910402602001604051908101604052809291908181526020018280546115e490613464565b80156116315780601f1061160657610100808354040283529160200191611631565b820191906000526020600020905b81548152906001019060200180831161161457829003601f168201915b50505050508152602001826009015481525084848151811061165657611655613496565b5b6020026020010181905250828061166c906134f4565b9350505b50808061167c906134f4565b91505061141f565b50819250505090565b61169683611c1b565b6116d5576040517f08c379a00000000000000000000000000000000000000000000000000000000081526004016116cc90613589565b60405180910390fd5b6116df8383612692565b61171e576040517f08c379a000000000000000000000000000000000000000000000000000000000815260040161171590613ac3565b60405180910390fd5b6000806000858152602001908152602001600020905061173e3385611029565b61177d576040517f08c379a000000000000000000000000000000000000000000000000000000000815260040161177490613785565b60405180910390fd5b611787838561265b565b6117c6576040517f08c379a00000000000000000000000000000000000000000000000000000000081526004016117bd906135f5565b60405180910390fd5b600081600501600085815260200190815260200160002090506117ea338587610828565b1561182a576040517f08c379a000000000000000000000000000000000000000000000000000000000815260040161182190613b55565b60405180910390fd5b6040518060400160405280600781526020017f50656e64696e670000000000000000000000000000000000000000000000000081525080519060200120816004016040516118789190613c14565b6040518091039020146118c0576040517f08c379a00000000000000000000000000000000000000000000000000000000081526004016118b790613c9d565b60405180910390fd5b828160100160003373ffffffffffffffffffffffffffffffffffffffff1673ffffffffffffffffffffffffffffffffffffffff16815260200190815260200160002060006101000a81548160ff02191690831515021790555082156119405760018160060160008282546119349190613a21565b9250508190555061195d565b60018160070160008282546119559190613a21565b925050819055505b5050505050565b6060600060015467ffffffffffffffff81111561198457611983612e67565b5b6040519080825280602002602001820160405280156119bd57816020015b6119aa61289e565b8152602001906001900390816119a25790505b50905060005b600154811015611c135760008060006001846119df9190613a21565b8152602001908152602001600020905060405180610100016040528082600001548152602001826001018054611a1490613464565b80601f0160208091040260200160405190810160405280929190818152602001828054611a4090613464565b8015611a8d5780601f10611a6257610100808354040283529160200191611a8d565b820191906000526020600020905b815481529060010190602001808311611a7057829003601f168201915b50505050508152602001826003015481526020018260060154815260200182600401548152602001826007018054611ac490613464565b80601f0160208091040260200160405190810160405280929190818152602001828054611af090613464565b8015611b3d5780601f10611b1257610100808354040283529160200191611b3d565b820191906000526020600020905b815481529060010190602001808311611b2057829003601f168201915b50505050508152602001826008018054611b5690613464565b80601f0160208091040260200160405190810160405280929190818152602001828054611b8290613464565b8015611bcf5780601f10611ba457610100808354040283529160200191611bcf565b820191906000526020600020905b815481529060010190602001808311611bb257829003601f168201915b505050505081526020018260090154815250838381518110611bf457611bf3613496565b5b6020026020010181905250508080611c0b906134f4565b9150506119c3565b508091505090565b6000806000808481526020019081526020016000206000015414159050919050565b611c4684611c1b565b611c85576040517f08c379a0000000000000000000000000000000000000000000000000000000008152600401611c7c90613589565b60405180910390fd5b60008060008681526020019081526020016000209050611ca53386611029565b611ce4576040517f08c379a0000000000000000000000000000000000000000000000000000000008152600401611cdb90613785565b60405180910390fd5b60008411611d27576040517f08c379a0000000000000000000000000000000000000000000000000000000008152600401611d1e90613d2f565b60405180910390fd5b600060018260060154611d3a9190613a21565b9050600080600088815260200190815260200160002060050160008381526020019081526020016000209050818160000181905550338160010160006101000a81548173ffffffffffffffffffffffffffffffffffffffff021916908373ffffffffffffffffffffffffffffffffffffffff160217905550858160020181905550848160030160006101000a81548173ffffffffffffffffffffffffffffffffffffffff021916908373ffffffffffffffffffffffffffffffffffffffff1602179055506040518060400160405280600781526020017f50656e64696e6700000000000000000000000000000000000000000000000000815250816004019080519060200190611e4b929190612818565b5083816005019080519060200190611e64929190612818565b50600081600601819055506000816007018190555042816008018190555061012c42611e909190613a21565b816009018190555081836006018190555050505050505050565b611eb381611c1b565b611ef2576040517f08c379a0000000000000000000000000000000000000000000000000000000008152600401611ee990613d9b565b60405180910390fd5b600080600083815260200190815260200160002090506040518060400160405280600881526020017f5665726966696564000000000000000000000000000000000000000000000000815250816008019080519060200190611f55929190612818565b505050565b600080600080848152602001908152602001600020905060008160020160008673ffffffffffffffffffffffffffffffffffffffff1673ffffffffffffffffffffffffffffffffffffffff168152602001908152602001600020905080600101549250505092915050565b611fcd61289e565b611fd682611c1b565b612015576040517f08c379a000000000000000000000000000000000000000000000000000000000815260040161200c90613589565b60405180910390fd5b6000806000848152602001908152602001600020905060006040518061010001604052808360000154815260200183600101805461205290613464565b80601f016020809104026020016040519081016040528092919081815260200182805461207e90613464565b80156120cb5780601f106120a0576101008083540402835291602001916120cb565b820191906000526020600020905b8154815290600101906020018083116120ae57829003601f168201915b5050505050815260200183600301548152602001836006015481526020018360040154815260200183600701805461210290613464565b80601f016020809104026020016040519081016040528092919081815260200182805461212e90613464565b801561217b5780601f106121505761010080835404028352916020019161217b565b820191906000526020600020905b81548152906001019060200180831161215e57829003601f168201915b5050505050815260200183600801805461219490613464565b80601f01602080910402602001604051908101604052809291908181526020018280546121c090613464565b801561220d5780601f106121e25761010080835404028352916020019161220d565b820191906000526020600020905b8154815290600101906020018083116121f057829003601f168201915b50505050508152602001836009015481525090508092505050919050565b6000606360008084815260200190815260200160002060030154109050919050565b61225681611c1b565b612295576040517f08c379a000000000000000000000000000000000000000000000000000000000815260040161228c90613d9b565b60405180910390fd5b600080600083815260200190815260200160002090506122b48261222b565b6122f3576040517f08c379a00000000000000000000000000000000000000000000000000000000081526004016122ea90613e2d565b60405180910390fd5b6122fd3383611029565b1561233d576040517f08c379a000000000000000000000000000000000000000000000000000000000815260040161233490613ebf565b60405180910390fd5b600060405180604001604052803373ffffffffffffffffffffffffffffffffffffffff16815260200160008152509050808260020160003373ffffffffffffffffffffffffffffffffffffffff1673ffffffffffffffffffffffffffffffffffffffff16815260200190815260200160002060008201518160000160006101000a81548173ffffffffffffffffffffffffffffffffffffffff021916908373ffffffffffffffffffffffffffffffffffffffff1602179055506020820151816001015590505060018260030160008282546124189190613a21565b92505081905550505050565b61242d82611c1b565b61246c576040517f08c379a000000000000000000000000000000000000000000000000000000000815260040161246390613589565b60405180910390fd5b612476818361265b565b6124b5576040517f08c379a00000000000000000000000000000000000000000000000000000000081526004016124ac906135f5565b60405180910390fd5b6124bf8282612692565b156124ff576040517f08c379a00000000000000000000000000000000000000000000000000000000081526004016124f690613687565b60405180910390fd5b6000806000848152602001908152602001600020600501600083815260200190815260200160002090506040518060400160405280600781526020017f50656e64696e670000000000000000000000000000000000000000000000000081525080519060200120816004016040516125779190613c14565b6040518091039020146125bf576040517f08c379a00000000000000000000000000000000000000000000000000000000081526004016125b690613f51565b60405180910390fd5b6125c9838361270c565b612608576040517f08c379a00000000000000000000000000000000000000000000000000000000081526004016125ff90613fe3565b60405180910390fd5b6040518060400160405280600681526020017f436c6f7365640000000000000000000000000000000000000000000000000000815250816004019080519060200190612655929190612818565b50505050565b6000806000808481526020019081526020016000206005016000858152602001908152602001600020600001541415905092915050565b600080600080858152602001908152602001600020600501600084815260200190815260200160002090504281600901541191505092915050565b60008060008085815260200190815260200160002060050160008481526020019081526020016000209050806007015481600601541191505092915050565b6000806000808581526020019081526020016000209050600081600501600085815260200190815260200160002090508060010160009054906101000a900473ffffffffffffffffffffffffffffffffffffffff1673ffffffffffffffffffffffffffffffffffffffff163373ffffffffffffffffffffffffffffffffffffffff16149250505092915050565b60405180610140016040528060008152602001600073ffffffffffffffffffffffffffffffffffffffff16815260200160008152602001600073ffffffffffffffffffffffffffffffffffffffff1681526020016060815260200160608152602001600081526020016000815260200160008152602001600081525090565b82805461282490613464565b90600052602060002090601f016020900481019282612846576000855561288d565b82601f1061285f57805160ff191683800117855561288d565b8280016001018555821561288d579182015b8281111561288c578251825591602001919060010190612871565b5b50905061289a91906128e3565b5090565b60405180610100016040528060008152602001606081526020016000815260200160008152602001600081526020016060815260200160608152602001600081525090565b5b808211156128fc5760008160009055506001016128e4565b5090565b6000604051905090565b600080fd5b600080fd5b6000819050919050565b61292781612914565b811461293257600080fd5b50565b6000813590506129448161291e565b92915050565b6000602082840312156129605761295f61290a565b5b600061296e84828501612935565b91505092915050565b600081519050919050565b600082825260208201905092915050565b6000819050602082019050919050565b6129ac81612914565b82525050565b600073ffffffffffffffffffffffffffffffffffffffff82169050919050565b60006129dd826129b2565b9050919050565b6129ed816129d2565b82525050565b600081519050919050565b600082825260208201905092915050565b60005b83811015612a2d578082015181840152602081019050612a12565b83811115612a3c576000848401525b50505050565b6000601f19601f8301169050919050565b6000612a5e826129f3565b612a6881856129fe565b9350612a78818560208601612a0f565b612a8181612a42565b840191505092915050565b600061014083016000830151612aa560008601826129a3565b506020830151612ab860208601826129e4565b506040830151612acb60408601826129a3565b506060830151612ade60608601826129e4565b5060808301518482036080860152612af68282612a53565b91505060a083015184820360a0860152612b108282612a53565b91505060c0830151612b2560c08601826129a3565b5060e0830151612b3860e08601826129a3565b50610100830151612b4d6101008601826129a3565b50610120830151612b626101208601826129a3565b508091505092915050565b6000612b798383612a8c565b905092915050565b6000602082019050919050565b6000612b9982612977565b612ba38185612982565b935083602082028501612bb585612993565b8060005b85811015612bf15784840389528151612bd28582612b6d565b9450612bdd83612b81565b925060208a01995050600181019050612bb9565b50829750879550505050505092915050565b60006020820190508181036000830152612c1d8184612b8e565b905092915050565b612c2e816129d2565b8114612c3957600080fd5b50565b600081359050612c4b81612c25565b92915050565b600080600060608486031215612c6a57612c6961290a565b5b6000612c7886828701612c3c565b9350506020612c8986828701612935565b9250506040612c9a86828701612935565b9150509250925092565b60008115159050919050565b612cb981612ca4565b82525050565b6000602082019050612cd46000830184612cb0565b92915050565b60008060408385031215612cf157612cf061290a565b5b6000612cff85828601612935565b9250506020612d1085828601612935565b9150509250929050565b600061014083016000830151612d3360008601826129a3565b506020830151612d4660208601826129e4565b506040830151612d5960408601826129a3565b506060830151612d6c60608601826129e4565b5060808301518482036080860152612d848282612a53565b91505060a083015184820360a0860152612d9e8282612a53565b91505060c0830151612db360c08601826129a3565b5060e0830151612dc660e08601826129a3565b50610100830151612ddb6101008601826129a3565b50610120830151612df06101208601826129a3565b508091505092915050565b60006020820190508181036000830152612e158184612d1a565b905092915050565b60008060408385031215612e3457612e3361290a565b5b6000612e4285828601612c3c565b9250506020612e5385828601612935565b9150509250929050565b600080fd5b600080fd5b7f4e487b7100000000000000000000000000000000000000000000000000000000600052604160045260246000fd5b612e9f82612a42565b810181811067ffffffffffffffff82111715612ebe57612ebd612e67565b5b80604052505050565b6000612ed1612900565b9050612edd8282612e96565b919050565b600067ffffffffffffffff821115612efd57612efc612e67565b5b612f0682612a42565b9050602081019050919050565b82818337600083830152505050565b6000612f35612f3084612ee2565b612ec7565b905082815260208101848484011115612f5157612f50612e62565b5b612f5c848285612f13565b509392505050565b600082601f830112612f7957612f78612e5d565b5b8135612f89848260208601612f22565b91505092915050565b60008060408385031215612fa957612fa861290a565b5b600083013567ffffffffffffffff811115612fc757612fc661290f565b5b612fd385828601612f64565b925050602083013567ffffffffffffffff811115612ff457612ff361290f565b5b61300085828601612f64565b9150509250929050565b61301381612914565b82525050565b600060208201905061302e600083018461300a565b92915050565b600081519050919050565b600082825260208201905092915050565b6000819050602082019050919050565b60006101008301600083015161307960008601826129a3565b50602083015184820360208601526130918282612a53565b91505060408301516130a660408601826129a3565b5060608301516130b960608601826129a3565b5060808301516130cc60808601826129a3565b5060a083015184820360a08601526130e48282612a53565b91505060c083015184820360c08601526130fe8282612a53565b91505060e083015161311360e08601826129a3565b508091505092915050565b600061312a8383613060565b905092915050565b6000602082019050919050565b600061314a82613034565b613154818561303f565b93508360208202850161316685613050565b8060005b858110156131a25784840389528151613183858261311e565b945061318e83613132565b925060208a0199505060018101905061316a565b50829750879550505050505092915050565b600060208201905081810360008301526131ce818461313f565b905092915050565b6131df81612ca4565b81146131ea57600080fd5b50565b6000813590506131fc816131d6565b92915050565b60008060006060848603121561321b5761321a61290a565b5b600061322986828701612935565b935050602061323a86828701612935565b925050604061324b868287016131ed565b9150509250925092565b6000806000806080858703121561326f5761326e61290a565b5b600061327d87828801612935565b945050602061328e87828801612935565b935050604061329f87828801612c3c565b925050606085013567ffffffffffffffff8111156132c0576132bf61290f565b5b6132cc87828801612f64565b91505092959194509250565b6000610100830160008301516132f160008601826129a3565b50602083015184820360208601526133098282612a53565b915050604083015161331e60408601826129a3565b50606083015161333160608601826129a3565b50608083015161334460808601826129a3565b5060a083015184820360a086015261335c8282612a53565b91505060c083015184820360c08601526133768282612a53565b91505060e083015161338b60e08601826129a3565b508091505092915050565b600060208201905081810360008301526133b081846132d8565b905092915050565b600082825260208201905092915050565b7f436c756220646f6573206e6f7420657869737400000000000000000000000000600082015250565b60006133ff6013836133b8565b915061340a826133c9565b602082019050919050565b6000602082019050818103600083015261342e816133f2565b9050919050565b7f4e487b7100000000000000000000000000000000000000000000000000000000600052602260045260246000fd5b6000600282049050600182168061347c57607f821691505b602082108114156134905761348f613435565b5b50919050565b7f4e487b7100000000000000000000000000000000000000000000000000000000600052603260045260246000fd5b7f4e487b7100000000000000000000000000000000000000000000000000000000600052601160045260246000fd5b60006134ff82612914565b91507fffffffffffffffffffffffffffffffffffffffffffffffffffffffffffffffff821415613532576135316134c5565b5b600182019050919050565b7f74686520636c756220646f6573206e6f74206578697374000000000000000000600082015250565b60006135736017836133b8565b915061357e8261353d565b602082019050919050565b600060208201905081810360008301526135a281613566565b9050919050565b7f5468652070726f706f73616c20646f6573206e6f742065786973740000000000600082015250565b60006135df601b836133b8565b91506135ea826135a9565b602082019050919050565b6000602082019050818103600083015261360e816135d2565b9050919050565b7f596f752063616e2774206265666f72652074686520566f74696e67206465616460008201527f6c696e6500000000000000000000000000000000000000000000000000000000602082015250565b60006136716024836133b8565b915061367c82613615565b604082019050919050565b600060208201905081810360008301526136a081613664565b9050919050565b7f54686520666f7220766f7465206973206c657373207468616e20416761696e7360008201527f7400000000000000000000000000000000000000000000000000000000000000602082015250565b60006137036021836133b8565b915061370e826136a7565b604082019050919050565b60006020820190508181036000830152613732816136f6565b9050919050565b7f596f7520617265206e6f742061206d656d626572206f662074686520636c7562600082015250565b600061376f6020836133b8565b915061377a82613739565b602082019050919050565b6000602082019050818103600083015261379e81613762565b9050919050565b7f4f6e6c79207468652063726561746f72206f66207468652070726f706f73616c60008201527f2063616e20657865637574652069740000000000000000000000000000000000602082015250565b6000613801602f836133b8565b915061380c826137a5565b604082019050919050565b60006020820190508181036000830152613830816137f4565b9050919050565b7f54686520616d6f756e7420657863656564732074686520706f6f6c206f66207460008201527f686520636c756200000000000000000000000000000000000000000000000000602082015250565b60006138936027836133b8565b915061389e82613837565b604082019050919050565b600060208201905081810360008301526138c281613886565b9050919050565b7f5468652070726f706f73616c20686173206e6f74206265656e20617070726f7660008201527f6564000000000000000000000000000000000000000000000000000000000000602082015250565b60006139256022836133b8565b9150613930826138c9565b604082019050919050565b6000602082019050818103600083015261395481613918565b9050919050565b600061396682612914565b915061397183612914565b925082821015613984576139836134c5565b5b828203905092915050565b7f596f75206d7573742073656e642045564d4f5320746f20636f6e74726962757460008201527f6500000000000000000000000000000000000000000000000000000000000000602082015250565b60006139eb6021836133b8565b91506139f68261398f565b604082019050919050565b60006020820190508181036000830152613a1a816139de565b9050919050565b6000613a2c82612914565b9150613a3783612914565b9250827fffffffffffffffffffffffffffffffffffffffffffffffffffffffffffffffff03821115613a6c57613a6b6134c5565b5b828201905092915050565b7f566f74696e6720506572696f642046696e697368656400000000000000000000600082015250565b6000613aad6016836133b8565b9150613ab882613a77565b602082019050919050565b60006020820190508181036000830152613adc81613aa0565b9050919050565b7f596f75206861766520616c726561647920766f746564206f6e2074686973207060008201527f726f706f73616c00000000000000000000000000000000000000000000000000602082015250565b6000613b3f6027836133b8565b9150613b4a82613ae3565b604082019050919050565b60006020820190508181036000830152613b6e81613b32565b9050919050565b600081905092915050565b60008190508160005260206000209050919050565b60008154613ba281613464565b613bac8186613b75565b94506001821660008114613bc75760018114613bd857613c0b565b60ff19831686528186019350613c0b565b613be185613b80565b60005b83811015613c0357815481890152600182019150602081019050613be4565b838801955050505b50505092915050565b6000613c208284613b95565b915081905092915050565b7f5468652070726f706f73616c206973206e6f206c6f6e6765722070656e64696e60008201527f6700000000000000000000000000000000000000000000000000000000000000602082015250565b6000613c876021836133b8565b9150613c9282613c2b565b604082019050919050565b60006020820190508181036000830152613cb681613c7a565b9050919050565b7f54686520616d6f756e74206f66207468652070726f706f73616c206d7573742060008201527f62652067726561746572207468616e2030000000000000000000000000000000602082015250565b6000613d196031836133b8565b9150613d2482613cbd565b604082019050919050565b60006020820190508181036000830152613d4881613d0c565b9050919050565b7f54686520636c756220646f6573206e6f74206578697374000000000000000000600082015250565b6000613d856017836133b8565b9150613d9082613d4f565b602082019050919050565b60006020820190508181036000830152613db481613d78565b9050919050565b7f54686520636c75622069732066756c6c2c206e6f206d6f7265206d656d62657260008201527f732063616e206265206164646564000000000000000000000000000000000000602082015250565b6000613e17602e836133b8565b9150613e2282613dbb565b604082019050919050565b60006020820190508181036000830152613e4681613e0a565b9050919050565b7f596f752061726520616c72656164792061206d656d626572206f66207468652060008201527f636c756200000000000000000000000000000000000000000000000000000000602082015250565b6000613ea96024836133b8565b9150613eb482613e4d565b604082019050919050565b60006020820190508181036000830152613ed881613e9c565b9050919050565b7f5468652070726f706f73616c206973206e6f7420696e2070656e64696e67207360008201527f7461747573000000000000000000000000000000000000000000000000000000602082015250565b6000613f3b6025836133b8565b9150613f4682613edf565b604082019050919050565b60006020820190508181036000830152613f6a81613f2e565b9050919050565b7f4f6e6c79207468652070726f706f73616c2063726561746f722063616e20636c60008201527f6f7365207468652070726f706f73616c00000000000000000000000000000000602082015250565b6000613fcd6030836133b8565b9150613fd882613f71565b604082019050919050565b60006020820190508181036000830152613ffc81613fc0565b905091905056fea2646970667358221220e23b8d2794d9bd4ddf59a3e4d7d8c27a8c72fe330454493bc346d0703a19e5cb64736f6c634300080a0033",
  "linkReferences": {},
  "deployedLinkReferences": {}
}