{
  "_format": "hh-sol-artifact-1",
  "contractName": "InvestmentClub",
  "sourceName": "contracts/InvestmentClub.sol",
  "abi": [
    {
      "inputs": [],
      "stateMutability": "nonpayable",
      "type": "constructor"
    },
    {
      "inputs": [
        {
          "internalType": "uint256",
          "name": "clubId",
          "type": "uint256"
        },
        {
          "internalType": "uint256",
          "name": "proposalId",
          "type": "uint256"
        }
      ],
      "name": "closeProposal",
      "outputs": [],
      "stateMutability": "nonpayable",
      "type": "function"
    },
    {
      "inputs": [
        {
          "internalType": "uint256",
          "name": "clubId",
          "type": "uint256"
        }
      ],
      "name": "contributeToClub",
      "outputs": [],
      "stateMutability": "payable",
      "type": "function"
    },
    {
      "inputs": [
        {
          "internalType": "string",
          "name": "name",
          "type": "string"
        },
        {
          "internalType": "string",
          "name": "Cid",
          "type": "string"
        }
      ],
      "name": "createClub",
      "outputs": [
        {
          "internalType": "uint256",
          "name": "",
          "type": "uint256"
        }
      ],
      "stateMutability": "nonpayable",
      "type": "function"
    },
    {
      "inputs": [
        {
          "internalType": "uint256",
          "name": "clubId",
          "type": "uint256"
        },
        {
          "internalType": "uint256",
          "name": "amount",
          "type": "uint256"
        },
        {
          "internalType": "address",
          "name": "destination",
          "type": "address"
        },
        {
          "internalType": "string",
          "name": "description",
          "type": "string"
        },
        {
          "internalType": "string",
          "name": "Cid",
          "type": "string"
        }
      ],
      "name": "createProposal",
      "outputs": [],
      "stateMutability": "nonpayable",
      "type": "function"
    },
    {
      "inputs": [
        {
          "internalType": "uint256",
          "name": "clubId",
          "type": "uint256"
        },
        {
          "internalType": "uint256",
          "name": "proposalId",
          "type": "uint256"
        }
      ],
      "name": "executeProposal",
      "outputs": [],
      "stateMutability": "payable",
      "type": "function"
    },
    {
      "inputs": [
        {
          "internalType": "address",
          "name": "userAddress",
          "type": "address"
        },
        {
          "internalType": "uint256",
          "name": "clubId",
          "type": "uint256"
        }
      ],
      "name": "getBalanceByClub",
      "outputs": [
        {
          "internalType": "uint256",
          "name": "",
          "type": "uint256"
        }
      ],
      "stateMutability": "view",
      "type": "function"
    },
    {
      "inputs": [
        {
          "internalType": "uint256",
          "name": "clubId",
          "type": "uint256"
        },
        {
          "internalType": "uint256",
          "name": "proposalId",
          "type": "uint256"
        },
        {
          "internalType": "string",
          "name": "_Piece",
          "type": "string"
        },
        {
          "internalType": "string",
          "name": "_carsize",
          "type": "string"
        }
      ],
      "name": "getCarpiece",
      "outputs": [],
      "stateMutability": "nonpayable",
      "type": "function"
    },
    {
      "inputs": [
        {
          "internalType": "uint256",
          "name": "clubId",
          "type": "uint256"
        }
      ],
      "name": "getClubById",
      "outputs": [
        {
          "components": [
            {
              "internalType": "uint256",
              "name": "clubId",
              "type": "uint256"
            },
            {
              "internalType": "string",
              "name": "name",
              "type": "string"
            },
            {
              "internalType": "uint256",
              "name": "memberCount",
              "type": "uint256"
            },
            {
              "internalType": "uint256",
              "name": "proposalCount",
              "type": "uint256"
            },
            {
              "internalType": "uint256",
              "name": "pool",
              "type": "uint256"
            },
            {
              "internalType": "string",
              "name": "CID",
              "type": "string"
            },
            {
              "internalType": "string",
              "name": "posdiverification",
              "type": "string"
            },
            {
              "internalType": "uint256",
              "name": "DealId",
              "type": "uint256"
            }
          ],
          "internalType": "struct InvestmentClub.ClubInfo",
          "name": "",
          "type": "tuple"
        }
      ],
      "stateMutability": "view",
      "type": "function"
    },
    {
      "inputs": [],
      "name": "getMyClubs",
      "outputs": [
        {
          "components": [
            {
              "internalType": "uint256",
              "name": "clubId",
              "type": "uint256"
            },
            {
              "internalType": "string",
              "name": "name",
              "type": "string"
            },
            {
              "internalType": "uint256",
              "name": "memberCount",
              "type": "uint256"
            },
            {
              "internalType": "uint256",
              "name": "proposalCount",
              "type": "uint256"
            },
            {
              "internalType": "uint256",
              "name": "pool",
              "type": "uint256"
            },
            {
              "internalType": "string",
              "name": "CID",
              "type": "string"
            },
            {
              "internalType": "string",
              "name": "posdiverification",
              "type": "string"
            },
            {
              "internalType": "uint256",
              "name": "DealId",
              "type": "uint256"
            }
          ],
          "internalType": "struct InvestmentClub.ClubInfo[]",
          "name": "",
          "type": "tuple[]"
        }
      ],
      "stateMutability": "view",
      "type": "function"
    },
    {
      "inputs": [
        {
          "internalType": "uint256",
          "name": "clubId",
          "type": "uint256"
        },
        {
          "internalType": "uint256",
          "name": "proposalId",
          "type": "uint256"
        }
      ],
      "name": "getProposalById",
      "outputs": [
        {
          "components": [
            {
              "internalType": "uint256",
              "name": "id",
              "type": "uint256"
            },
            {
              "internalType": "address",
              "name": "creator",
              "type": "address"
            },
            {
              "internalType": "uint256",
              "name": "amount",
              "type": "uint256"
            },
            {
              "internalType": "address",
              "name": "destination",
              "type": "address"
            },
            {
              "internalType": "string",
              "name": "status",
              "type": "string"
            },
            {
              "internalType": "string",
              "name": "description",
              "type": "string"
            },
            {
              "internalType": "uint256",
              "name": "votesFor",
              "type": "uint256"
            },
            {
              "internalType": "uint256",
              "name": "votesAgainst",
              "type": "uint256"
            },
            {
              "internalType": "uint256",
              "name": "proposedAt",
              "type": "uint256"
            },
            {
              "internalType": "uint256",
              "name": "proposalExpireAt",
              "type": "uint256"
            },
            {
              "internalType": "string",
              "name": "Cid",
              "type": "string"
            },
            {
              "internalType": "string",
              "name": "PieceCid",
              "type": "string"
            },
            {
              "internalType": "string",
              "name": "carsize",
              "type": "string"
            },
            {
              "internalType": "string",
              "name": "posdiverification",
              "type": "string"
            },
            {
              "internalType": "string",
              "name": "storageProvider",
              "type": "string"
            },
            {
              "internalType": "uint256",
              "name": "DealId",
              "type": "uint256"
            }
          ],
          "internalType": "struct InvestmentClub.ProposalInfo",
          "name": "",
          "type": "tuple"
        }
      ],
      "stateMutability": "view",
      "type": "function"
    },
    {
      "inputs": [
        {
          "internalType": "uint256",
          "name": "clubId",
          "type": "uint256"
        }
      ],
      "name": "getProposalsByClub",
      "outputs": [
        {
          "components": [
            {
              "internalType": "uint256",
              "name": "id",
              "type": "uint256"
            },
            {
              "internalType": "address",
              "name": "creator",
              "type": "address"
            },
            {
              "internalType": "uint256",
              "name": "amount",
              "type": "uint256"
            },
            {
              "internalType": "address",
              "name": "destination",
              "type": "address"
            },
            {
              "internalType": "string",
              "name": "status",
              "type": "string"
            },
            {
              "internalType": "string",
              "name": "description",
              "type": "string"
            },
            {
              "internalType": "uint256",
              "name": "votesFor",
              "type": "uint256"
            },
            {
              "internalType": "uint256",
              "name": "votesAgainst",
              "type": "uint256"
            },
            {
              "internalType": "uint256",
              "name": "proposedAt",
              "type": "uint256"
            },
            {
              "internalType": "uint256",
              "name": "proposalExpireAt",
              "type": "uint256"
            },
            {
              "internalType": "string",
              "name": "Cid",
              "type": "string"
            },
            {
              "internalType": "string",
              "name": "PieceCid",
              "type": "string"
            },
            {
              "internalType": "string",
              "name": "carsize",
              "type": "string"
            },
            {
              "internalType": "string",
              "name": "posdiverification",
              "type": "string"
            },
            {
              "internalType": "string",
              "name": "storageProvider",
              "type": "string"
            },
            {
              "internalType": "uint256",
              "name": "DealId",
              "type": "uint256"
            }
          ],
          "internalType": "struct InvestmentClub.ProposalInfo[]",
          "name": "",
          "type": "tuple[]"
        }
      ],
      "stateMutability": "view",
      "type": "function"
    },
    {
      "inputs": [
        {
          "internalType": "uint256",
          "name": "clubId",
          "type": "uint256"
        },
        {
          "internalType": "uint256",
          "name": "proposalId",
          "type": "uint256"
        },
        {
          "internalType": "uint256",
          "name": "_dealId",
          "type": "uint256"
        },
        {
          "internalType": "string",
          "name": "_storage",
          "type": "string"
        }
      ],
      "name": "getdelandstorgae",
      "outputs": [],
      "stateMutability": "nonpayable",
      "type": "function"
    },
    {
      "inputs": [
        {
          "internalType": "address",
          "name": "sender",
          "type": "address"
        },
        {
          "internalType": "uint256",
          "name": "proposalId",
          "type": "uint256"
        },
        {
          "internalType": "uint256",
          "name": "clubId",
          "type": "uint256"
        }
      ],
      "name": "hasVoted",
      "outputs": [
        {
          "internalType": "bool",
          "name": "",
          "type": "bool"
        }
      ],
      "stateMutability": "view",
      "type": "function"
    },
    {
      "inputs": [
        {
          "internalType": "uint256",
          "name": "clubId",
          "type": "uint256"
        }
      ],
      "name": "isClubFull",
      "outputs": [
        {
          "internalType": "bool",
          "name": "",
          "type": "bool"
        }
      ],
      "stateMutability": "view",
      "type": "function"
    },
    {
      "inputs": [
        {
          "internalType": "uint256",
          "name": "clubId",
          "type": "uint256"
        }
      ],
      "name": "isClubIdExist",
      "outputs": [
        {
          "internalType": "bool",
          "name": "",
          "type": "bool"
        }
      ],
      "stateMutability": "view",
      "type": "function"
    },
    {
      "inputs": [
        {
          "internalType": "address",
          "name": "memberAddress",
          "type": "address"
        },
        {
          "internalType": "uint256",
          "name": "clubId",
          "type": "uint256"
        }
      ],
      "name": "isMemberOfClub",
      "outputs": [
        {
          "internalType": "bool",
          "name": "",
          "type": "bool"
        }
      ],
      "stateMutability": "view",
      "type": "function"
    },
    {
      "inputs": [
        {
          "internalType": "uint256",
          "name": "proposalId",
          "type": "uint256"
        },
        {
          "internalType": "uint256",
          "name": "clubId",
          "type": "uint256"
        }
      ],
      "name": "isProposalIdExist",
      "outputs": [
        {
          "internalType": "bool",
          "name": "",
          "type": "bool"
        }
      ],
      "stateMutability": "view",
      "type": "function"
    },
    {
      "inputs": [
        {
          "internalType": "uint256",
          "name": "clubId",
          "type": "uint256"
        }
      ],
      "name": "joinClub",
      "outputs": [],
      "stateMutability": "nonpayable",
      "type": "function"
    },
    {
      "inputs": [
        {
          "internalType": "uint256",
          "name": "clubId",
          "type": "uint256"
        }
      ],
      "name": "leaveClub",
      "outputs": [],
      "stateMutability": "nonpayable",
      "type": "function"
    },
    {
      "inputs": [],
      "name": "listClubs",
      "outputs": [
        {
          "components": [
            {
              "internalType": "uint256",
              "name": "clubId",
              "type": "uint256"
            },
            {
              "internalType": "string",
              "name": "name",
              "type": "string"
            },
            {
              "internalType": "uint256",
              "name": "memberCount",
              "type": "uint256"
            },
            {
              "internalType": "uint256",
              "name": "proposalCount",
              "type": "uint256"
            },
            {
              "internalType": "uint256",
              "name": "pool",
              "type": "uint256"
            },
            {
              "internalType": "string",
              "name": "CID",
              "type": "string"
            },
            {
              "internalType": "string",
              "name": "posdiverification",
              "type": "string"
            },
            {
              "internalType": "uint256",
              "name": "DealId",
              "type": "uint256"
            }
          ],
          "internalType": "struct InvestmentClub.ClubInfo[]",
          "name": "",
          "type": "tuple[]"
        }
      ],
      "stateMutability": "view",
      "type": "function"
    },
    {
      "inputs": [
        {
          "internalType": "uint256",
          "name": "clubId",
          "type": "uint256"
        },
        {
          "internalType": "uint256",
          "name": "proposalId",
          "type": "uint256"
        }
      ],
      "name": "proverifiydocs",
      "outputs": [],
      "stateMutability": "nonpayable",
      "type": "function"
    },
    {
      "inputs": [
        {
          "internalType": "uint256",
          "name": "clubId",
          "type": "uint256"
        }
      ],
      "name": "verifiydocs",
      "outputs": [],
      "stateMutability": "nonpayable",
      "type": "function"
    },
    {
      "inputs": [
        {
          "internalType": "uint256",
          "name": "clubId",
          "type": "uint256"
        },
        {
          "internalType": "uint256",
          "name": "proposalId",
          "type": "uint256"
        },
        {
          "internalType": "bool",
          "name": "vote",
          "type": "bool"
        }
      ],
      "name": "voteOnProposal",
      "outputs": [],
      "stateMutability": "nonpayable",
      "type": "function"
    }
  ],
  "bytecode": "0x608060405234801561001057600080fd5b506000600181905550614bea806100286000396000f3fe6080604052600436106101405760003560e01c80635ff847fb116100b65780639d9087b91161006f5780639d9087b914610474578063c3741fed1461049d578063c4670878146104da578063e154274214610517578063e7613ea814610540578063eec8e0db1461056957610140565b80635ff847fb14610354578063647e598b1461037f5780636764fd48146103a857806382b7661b146103e5578063890e24561461040e57806389972a321461044b57610140565b8063288509b411610108578063288509b41461024157806334fa3d831461025d57806335a1930f1461029a5780634d7f75c3146102d7578063549710be1461030057806354a2e2331461032b57610140565b8063058694a9146101455780630ee29404146101825780631063fd19146101bf57806314204fc6146101e85780631ab7671214610225575b600080fd5b34801561015157600080fd5b5061016c60048036038101906101679190613267565b6105a6565b60405161017991906135c1565b60405180910390f35b34801561018e57600080fd5b506101a960048036038101906101a4919061360f565b610ba8565b6040516101b6919061367d565b60405180910390f35b3480156101cb57600080fd5b506101e660048036038101906101e191906137cd565b610c27565b005b3480156101f457600080fd5b5061020f600480360381019061020a9190613850565b610c7a565b60405161021c9190613a12565b60405180910390f35b61023f600480360381019061023a9190613850565b61121a565b005b61025b60048036038101906102569190613267565b611576565b005b34801561026957600080fd5b50610284600480360381019061027f9190613a34565b6116e0565b604051610291919061367d565b60405180910390f35b3480156102a657600080fd5b506102c160048036038101906102bc9190613a74565b61178f565b6040516102ce9190613afb565b60405180910390f35b3480156102e357600080fd5b506102fe60048036038101906102f99190613267565b611938565b005b34801561030c57600080fd5b50610315611a72565b6040516103229190613c96565b60405180910390f35b34801561033757600080fd5b50610352600480360381019061034d9190613ce4565b611d44565b005b34801561036057600080fd5b5061036961201b565b6040516103769190613c96565b60405180910390f35b34801561038b57600080fd5b506103a660048036038101906103a19190613d37565b6122d2565b005b3480156103b457600080fd5b506103cf60048036038101906103ca9190613267565b612335565b6040516103dc919061367d565b60405180910390f35b3480156103f157600080fd5b5061040c60048036038101906104079190613267565b612357565b005b34801561041a57600080fd5b5061043560048036038101906104309190613a34565b612407565b6040516104429190613afb565b60405180910390f35b34801561045757600080fd5b50610472600480360381019061046d9190613dd6565b612472565b005b34801561048057600080fd5b5061049b60048036038101906104969190613850565b61283b565b005b3480156104a957600080fd5b506104c460048036038101906104bf9190613267565b6128b8565b6040516104d19190613f47565b60405180910390f35b3480156104e657600080fd5b5061050160048036038101906104fc9190613267565b612b1e565b60405161050e919061367d565b60405180910390f35b34801561052357600080fd5b5061053e60048036038101906105399190613267565b612b40565b005b34801561054c57600080fd5b5061056760048036038101906105629190613850565b612d17565b005b34801561057557600080fd5b50610590600480360381019061058b9190613850565b612f4e565b60405161059d919061367d565b60405180910390f35b60606105b182612335565b6105f0576040517f08c379a00000000000000000000000000000000000000000000000000000000081526004016105e790613fc6565b60405180910390fd5b600080600084815260200190815260200160002090506000816006015467ffffffffffffffff811115610626576106256136a2565b5b60405190808252806020026020018201604052801561065f57816020015b61064c61308c565b8152602001906001900390816106445790505b509050600080600190505b83600601548111610b9c5760008460050160008381526020019081526020016000209050604051806102000160405280826000015481526020018260010160009054906101000a900473ffffffffffffffffffffffffffffffffffffffff1673ffffffffffffffffffffffffffffffffffffffff168152602001826002015481526020018260030160009054906101000a900473ffffffffffffffffffffffffffffffffffffffff1673ffffffffffffffffffffffffffffffffffffffff16815260200182600401805461073d90614015565b80601f016020809104026020016040519081016040528092919081815260200182805461076990614015565b80156107b65780601f1061078b576101008083540402835291602001916107b6565b820191906000526020600020905b81548152906001019060200180831161079957829003601f168201915b505050505081526020018260050180546107cf90614015565b80601f01602080910402602001604051908101604052809291908181526020018280546107fb90614015565b80156108485780601f1061081d57610100808354040283529160200191610848565b820191906000526020600020905b81548152906001019060200180831161082b57829003601f168201915b505050505081526020018260060154815260200182600701548152602001826008015481526020018260090154815260200182600a01805461088990614015565b80601f01602080910402602001604051908101604052809291908181526020018280546108b590614015565b80156109025780601f106108d757610100808354040283529160200191610902565b820191906000526020600020905b8154815290600101906020018083116108e557829003601f168201915b5050505050815260200182600b01805461091b90614015565b80601f016020809104026020016040519081016040528092919081815260200182805461094790614015565b80156109945780601f1061096957610100808354040283529160200191610994565b820191906000526020600020905b81548152906001019060200180831161097757829003601f168201915b5050505050815260200182600c0180546109ad90614015565b80601f01602080910402602001604051908101604052809291908181526020018280546109d990614015565b8015610a265780601f106109fb57610100808354040283529160200191610a26565b820191906000526020600020905b815481529060010190602001808311610a0957829003601f168201915b5050505050815260200182600d018054610a3f90614015565b80601f0160208091040260200160405190810160405280929190818152602001828054610a6b90614015565b8015610ab85780601f10610a8d57610100808354040283529160200191610ab8565b820191906000526020600020905b815481529060010190602001808311610a9b57829003601f168201915b5050505050815260200182600e018054610ad190614015565b80601f0160208091040260200160405190810160405280929190818152602001828054610afd90614015565b8015610b4a5780601f10610b1f57610100808354040283529160200191610b4a565b820191906000526020600020905b815481529060010190602001808311610b2d57829003601f168201915b5050505050815260200182600f0154815250848481518110610b6f57610b6e614047565b5b60200260200101819052508280610b85906140a5565b935050508080610b94906140a5565b91505061066a565b50819350505050919050565b6000806000838152602001908152602001600020600501600084815260200190815260200160002060100160008573ffffffffffffffffffffffffffffffffffffffff1673ffffffffffffffffffffffffffffffffffffffff16815260200190815260200160002060009054906101000a900460ff1690509392505050565b6000806000868152602001908152602001600020600501600085815260200190815260200160002090508281600f01819055508181600e019080519060200190610c72929190613135565b505050505050565b610c8261308c565b610c8b83612335565b610cca576040517f08c379a0000000000000000000000000000000000000000000000000000000008152600401610cc19061413a565b60405180910390fd5b610cd48284612f4e565b610d13576040517f08c379a0000000000000000000000000000000000000000000000000000000008152600401610d0a906141a6565b60405180910390fd5b6000806000858152602001908152602001600020600501600084815260200190815260200160002090506000604051806102000160405280836000015481526020018360010160009054906101000a900473ffffffffffffffffffffffffffffffffffffffff1673ffffffffffffffffffffffffffffffffffffffff168152602001836002015481526020018360030160009054906101000a900473ffffffffffffffffffffffffffffffffffffffff1673ffffffffffffffffffffffffffffffffffffffff168152602001836004018054610dee90614015565b80601f0160208091040260200160405190810160405280929190818152602001828054610e1a90614015565b8015610e675780601f10610e3c57610100808354040283529160200191610e67565b820191906000526020600020905b815481529060010190602001808311610e4a57829003601f168201915b50505050508152602001836005018054610e8090614015565b80601f0160208091040260200160405190810160405280929190818152602001828054610eac90614015565b8015610ef95780601f10610ece57610100808354040283529160200191610ef9565b820191906000526020600020905b815481529060010190602001808311610edc57829003601f168201915b505050505081526020018360060154815260200183600701548152602001836008015481526020018360090154815260200183600a018054610f3a90614015565b80601f0160208091040260200160405190810160405280929190818152602001828054610f6690614015565b8015610fb35780601f10610f8857610100808354040283529160200191610fb3565b820191906000526020600020905b815481529060010190602001808311610f9657829003601f168201915b5050505050815260200183600b018054610fcc90614015565b80601f0160208091040260200160405190810160405280929190818152602001828054610ff890614015565b80156110455780601f1061101a57610100808354040283529160200191611045565b820191906000526020600020905b81548152906001019060200180831161102857829003601f168201915b5050505050815260200183600c01805461105e90614015565b80601f016020809104026020016040519081016040528092919081815260200182805461108a90614015565b80156110d75780601f106110ac576101008083540402835291602001916110d7565b820191906000526020600020905b8154815290600101906020018083116110ba57829003601f168201915b5050505050815260200183600d0180546110f090614015565b80601f016020809104026020016040519081016040528092919081815260200182805461111c90614015565b80156111695780601f1061113e57610100808354040283529160200191611169565b820191906000526020600020905b81548152906001019060200180831161114c57829003601f168201915b5050505050815260200183600e01805461118290614015565b80601f01602080910402602001604051908101604052809291908181526020018280546111ae90614015565b80156111fb5780601f106111d0576101008083540402835291602001916111fb565b820191906000526020600020905b8154815290600101906020018083116111de57829003601f168201915b5050505050815260200183600f01548152509050809250505092915050565b61122382612335565b611262576040517f08c379a00000000000000000000000000000000000000000000000000000000081526004016112599061413a565b60405180910390fd5b61126c8282612f85565b156112ac576040517f08c379a00000000000000000000000000000000000000000000000000000000081526004016112a390614238565b60405180910390fd5b6112b68282612fc0565b6112f5576040517f08c379a00000000000000000000000000000000000000000000000000000000081526004016112ec906142ca565b60405180910390fd5b6000806000848152602001908152602001600020905061131533846116e0565b611354576040517f08c379a000000000000000000000000000000000000000000000000000000000815260040161134b90614336565b60405180910390fd5b61135e8284612f4e565b61139d576040517f08c379a0000000000000000000000000000000000000000000000000000000008152600401611394906141a6565b60405180910390fd5b6113a78383612fff565b6113e6576040517f08c379a00000000000000000000000000000000000000000000000000000000081526004016113dd906143c8565b60405180910390fd5b6000816005016000848152602001908152602001600020905080600201548260040154101561144a576040517f08c379a00000000000000000000000000000000000000000000000000000000081526004016114419061445a565b60405180910390fd5b8060070154816006015411611494576040517f08c379a000000000000000000000000000000000000000000000000000000000815260040161148b906144ec565b60405180910390fd5b6040518060400160405280600881526020017f45786563757465640000000000000000000000000000000000000000000000008152508160040190805190602001906114e1929190613135565b5080600201548260040160008282546114fa919061450c565b925050819055508060030160009054906101000a900473ffffffffffffffffffffffffffffffffffffffff1673ffffffffffffffffffffffffffffffffffffffff166108fc82600201549081150290604051600060405180830381858888f1935050505015801561156f573d6000803e3d6000fd5b5050505050565b61157f81612335565b6115be576040517f08c379a00000000000000000000000000000000000000000000000000000000081526004016115b59061413a565b60405180910390fd5b600080600083815260200190815260200160002090506115de33836116e0565b61161d576040517f08c379a000000000000000000000000000000000000000000000000000000000815260040161161490614336565b60405180910390fd5b60003411611660576040517f08c379a0000000000000000000000000000000000000000000000000000000008152600401611657906145b2565b60405180910390fd5b60008160020160003373ffffffffffffffffffffffffffffffffffffffff1673ffffffffffffffffffffffffffffffffffffffff1681526020019081526020016000209050348160010160008282546116b991906145d2565b92505081905550348260040160008282546116d491906145d2565b92505081905550505050565b60008073ffffffffffffffffffffffffffffffffffffffff1660008084815260200190815260200160002060020160008573ffffffffffffffffffffffffffffffffffffffff1673ffffffffffffffffffffffffffffffffffffffff16815260200190815260200160002060000160009054906101000a900473ffffffffffffffffffffffffffffffffffffffff1673ffffffffffffffffffffffffffffffffffffffff161415905092915050565b600080600180546117a091906145d2565b905060008060008381526020019081526020016000209050818160000181905550848160010190805190602001906117d9929190613135565b5060008160040181905550600081600601819055506001816003018190555083816007019080519060200190611810929190613135565b506040518060400160405280600b81526020017f556e2d566572696669656400000000000000000000000000000000000000000081525081600801908051906020019061185e929190613135565b50600060405180604001604052803373ffffffffffffffffffffffffffffffffffffffff16815260200160008152509050808260020160003373ffffffffffffffffffffffffffffffffffffffff1673ffffffffffffffffffffffffffffffffffffffff16815260200190815260200160002060008201518160000160006101000a81548173ffffffffffffffffffffffffffffffffffffffff021916908373ffffffffffffffffffffffffffffffffffffffff160217905550602082015181600101559050508260018190555082935050505092915050565b61194181612335565b611980576040517f08c379a00000000000000000000000000000000000000000000000000000000081526004016119779061413a565b60405180910390fd5b600080600083815260200190815260200160002090506119a033836116e0565b6119df576040517f08c379a00000000000000000000000000000000000000000000000000000000081526004016119d690614336565b60405180910390fd5b60018160030160008282546119f4919061450c565b925050819055508060020160003373ffffffffffffffffffffffffffffffffffffffff1673ffffffffffffffffffffffffffffffffffffffff168152602001908152602001600020600080820160006101000a81549073ffffffffffffffffffffffffffffffffffffffff0219169055600182016000905550505050565b6060600060015467ffffffffffffffff811115611a9257611a916136a2565b5b604051908082528060200260200182016040528015611acb57816020015b611ab86131bb565b815260200190600190039081611ab05790505b509050600080600190505b6001548111611d3b5760008060008381526020019081526020016000209050611b033382600001546116e0565b15611d275760405180610100016040528082600001548152602001826001018054611b2d90614015565b80601f0160208091040260200160405190810160405280929190818152602001828054611b5990614015565b8015611ba65780601f10611b7b57610100808354040283529160200191611ba6565b820191906000526020600020905b815481529060010190602001808311611b8957829003601f168201915b50505050508152602001826003015481526020018260060154815260200182600401548152602001826007018054611bdd90614015565b80601f0160208091040260200160405190810160405280929190818152602001828054611c0990614015565b8015611c565780601f10611c2b57610100808354040283529160200191611c56565b820191906000526020600020905b815481529060010190602001808311611c3957829003601f168201915b50505050508152602001826008018054611c6f90614015565b80601f0160208091040260200160405190810160405280929190818152602001828054611c9b90614015565b8015611ce85780601f10611cbd57610100808354040283529160200191611ce8565b820191906000526020600020905b815481529060010190602001808311611ccb57829003601f168201915b505050505081526020018260090154815250848481518110611d0d57611d0c614047565b5b60200260200101819052508280611d23906140a5565b9350505b508080611d33906140a5565b915050611ad6565b50819250505090565b611d4d83612335565b611d8c576040517f08c379a0000000000000000000000000000000000000000000000000000000008152600401611d839061413a565b60405180910390fd5b611d968383612f85565b611dd5576040517f08c379a0000000000000000000000000000000000000000000000000000000008152600401611dcc90614674565b60405180910390fd5b60008060008581526020019081526020016000209050611df533856116e0565b611e34576040517f08c379a0000000000000000000000000000000000000000000000000000000008152600401611e2b90614336565b60405180910390fd5b611e3e8385612f4e565b611e7d576040517f08c379a0000000000000000000000000000000000000000000000000000000008152600401611e74906141a6565b60405180910390fd5b60008160050160008581526020019081526020016000209050611ea1338587610ba8565b15611ee1576040517f08c379a0000000000000000000000000000000000000000000000000000000008152600401611ed890614706565b60405180910390fd5b6040518060400160405280600781526020017f50656e64696e67000000000000000000000000000000000000000000000000008152508051906020012081600401604051611f2f91906147c5565b604051809103902014611f77576040517f08c379a0000000000000000000000000000000000000000000000000000000008152600401611f6e9061484e565b60405180910390fd5b828160100160003373ffffffffffffffffffffffffffffffffffffffff1673ffffffffffffffffffffffffffffffffffffffff16815260200190815260200160002060006101000a81548160ff0219169083151502179055508215611ff7576001816006016000828254611feb91906145d2565b92505081905550612014565b600181600701600082825461200c91906145d2565b925050819055505b5050505050565b6060600060015467ffffffffffffffff81111561203b5761203a6136a2565b5b60405190808252806020026020018201604052801561207457816020015b6120616131bb565b8152602001906001900390816120595790505b50905060005b6001548110156122ca57600080600060018461209691906145d2565b81526020019081526020016000209050604051806101000160405280826000015481526020018260010180546120cb90614015565b80601f01602080910402602001604051908101604052809291908181526020018280546120f790614015565b80156121445780601f1061211957610100808354040283529160200191612144565b820191906000526020600020905b81548152906001019060200180831161212757829003601f168201915b5050505050815260200182600301548152602001826006015481526020018260040154815260200182600701805461217b90614015565b80601f01602080910402602001604051908101604052809291908181526020018280546121a790614015565b80156121f45780601f106121c9576101008083540402835291602001916121f4565b820191906000526020600020905b8154815290600101906020018083116121d757829003601f168201915b5050505050815260200182600801805461220d90614015565b80601f016020809104026020016040519081016040528092919081815260200182805461223990614015565b80156122865780601f1061225b57610100808354040283529160200191612286565b820191906000526020600020905b81548152906001019060200180831161226957829003601f168201915b5050505050815260200182600901548152508383815181106122ab576122aa614047565b5b60200260200101819052505080806122c2906140a5565b91505061207a565b508091505090565b6000806000868152602001908152602001600020600501600085815260200190815260200160002090508281600b019080519060200190612314929190613135565b508181600c01908051906020019061232d929190613135565b505050505050565b6000806000808481526020019081526020016000206000015414159050919050565b61236081612335565b61239f576040517f08c379a0000000000000000000000000000000000000000000000000000000008152600401612396906148ba565b60405180910390fd5b600080600083815260200190815260200160002090506040518060400160405280600881526020017f5665726966696564000000000000000000000000000000000000000000000000815250816008019080519060200190612402929190613135565b505050565b600080600080848152602001908152602001600020905060008160020160008673ffffffffffffffffffffffffffffffffffffffff1673ffffffffffffffffffffffffffffffffffffffff168152602001908152602001600020905080600101549250505092915050565b61247b85612335565b6124ba576040517f08c379a00000000000000000000000000000000000000000000000000000000081526004016124b19061413a565b60405180910390fd5b600080600087815260200190815260200160002090506124da33876116e0565b612519576040517f08c379a000000000000000000000000000000000000000000000000000000000815260040161251090614336565b60405180910390fd5b6000851161255c576040517f08c379a00000000000000000000000000000000000000000000000000000000081526004016125539061494c565b60405180910390fd5b60006001826006015461256f91906145d2565b9050600080600089815260200190815260200160002060050160008381526020019081526020016000209050818160000181905550338160010160006101000a81548173ffffffffffffffffffffffffffffffffffffffff021916908373ffffffffffffffffffffffffffffffffffffffff160217905550868160020181905550858160030160006101000a81548173ffffffffffffffffffffffffffffffffffffffff021916908373ffffffffffffffffffffffffffffffffffffffff1602179055506040518060400160405280600781526020017f50656e64696e6700000000000000000000000000000000000000000000000000815250816004019080519060200190612680929190613135565b5084816005019080519060200190612699929190613135565b50600081600601819055506000816007018190555042816008018190555061012c426126c591906145d2565b81600901819055508381600a0190805190602001906126e5929190613135565b506040518060400160405280600a81526020017f494e2050726f636573730000000000000000000000000000000000000000000081525081600b019080519060200190612733929190613135565b506040518060400160405280600a81526020017f494e2d50726f636573730000000000000000000000000000000000000000000081525081600c019080519060200190612781929190613135565b50600081600f01819055506040518060400160405280600a81526020017f494e2d50726f636573730000000000000000000000000000000000000000000081525081600e0190805190602001906127d9929190613135565b506040518060400160405280600b81526020017f556e2d566572696669656400000000000000000000000000000000000000000081525081600d019080519060200190612827929190613135565b508183600601819055505050505050505050565b6000806000848152602001908152602001600020600501600083815260200190815260200160002090506040518060400160405280600881526020017f566572696669656400000000000000000000000000000000000000000000000081525081600d0190805190602001906128b2929190613135565b50505050565b6128c06131bb565b6128c982612335565b612908576040517f08c379a00000000000000000000000000000000000000000000000000000000081526004016128ff9061413a565b60405180910390fd5b6000806000848152602001908152602001600020905060006040518061010001604052808360000154815260200183600101805461294590614015565b80601f016020809104026020016040519081016040528092919081815260200182805461297190614015565b80156129be5780601f10612993576101008083540402835291602001916129be565b820191906000526020600020905b8154815290600101906020018083116129a157829003601f168201915b505050505081526020018360030154815260200183600601548152602001836004015481526020018360070180546129f590614015565b80601f0160208091040260200160405190810160405280929190818152602001828054612a2190614015565b8015612a6e5780601f10612a4357610100808354040283529160200191612a6e565b820191906000526020600020905b815481529060010190602001808311612a5157829003601f168201915b50505050508152602001836008018054612a8790614015565b80601f0160208091040260200160405190810160405280929190818152602001828054612ab390614015565b8015612b005780601f10612ad557610100808354040283529160200191612b00565b820191906000526020600020905b815481529060010190602001808311612ae357829003601f168201915b50505050508152602001836009015481525090508092505050919050565b6000606360008084815260200190815260200160002060030154109050919050565b612b4981612335565b612b88576040517f08c379a0000000000000000000000000000000000000000000000000000000008152600401612b7f906148ba565b60405180910390fd5b60008060008381526020019081526020016000209050612ba782612b1e565b612be6576040517f08c379a0000000000000000000000000000000000000000000000000000000008152600401612bdd906149de565b60405180910390fd5b612bf033836116e0565b15612c30576040517f08c379a0000000000000000000000000000000000000000000000000000000008152600401612c2790614a70565b60405180910390fd5b600060405180604001604052803373ffffffffffffffffffffffffffffffffffffffff16815260200160008152509050808260020160003373ffffffffffffffffffffffffffffffffffffffff1673ffffffffffffffffffffffffffffffffffffffff16815260200190815260200160002060008201518160000160006101000a81548173ffffffffffffffffffffffffffffffffffffffff021916908373ffffffffffffffffffffffffffffffffffffffff160217905550602082015181600101559050506001826003016000828254612d0b91906145d2565b92505081905550505050565b612d2082612335565b612d5f576040517f08c379a0000000000000000000000000000000000000000000000000000000008152600401612d569061413a565b60405180910390fd5b612d698183612f4e565b612da8576040517f08c379a0000000000000000000000000000000000000000000000000000000008152600401612d9f906141a6565b60405180910390fd5b612db28282612f85565b15612df2576040517f08c379a0000000000000000000000000000000000000000000000000000000008152600401612de990614238565b60405180910390fd5b6000806000848152602001908152602001600020600501600083815260200190815260200160002090506040518060400160405280600781526020017f50656e64696e67000000000000000000000000000000000000000000000000008152508051906020012081600401604051612e6a91906147c5565b604051809103902014612eb2576040517f08c379a0000000000000000000000000000000000000000000000000000000008152600401612ea990614b02565b60405180910390fd5b612ebc8383612fff565b612efb576040517f08c379a0000000000000000000000000000000000000000000000000000000008152600401612ef290614b94565b60405180910390fd5b6040518060400160405280600681526020017f436c6f7365640000000000000000000000000000000000000000000000000000815250816004019080519060200190612f48929190613135565b50505050565b6000806000808481526020019081526020016000206005016000858152602001908152602001600020600001541415905092915050565b600080600080858152602001908152602001600020600501600084815260200190815260200160002090504281600901541191505092915050565b60008060008085815260200190815260200160002060050160008481526020019081526020016000209050806007015481600601541191505092915050565b6000806000808581526020019081526020016000209050600081600501600085815260200190815260200160002090508060010160009054906101000a900473ffffffffffffffffffffffffffffffffffffffff1673ffffffffffffffffffffffffffffffffffffffff163373ffffffffffffffffffffffffffffffffffffffff16149250505092915050565b60405180610200016040528060008152602001600073ffffffffffffffffffffffffffffffffffffffff16815260200160008152602001600073ffffffffffffffffffffffffffffffffffffffff1681526020016060815260200160608152602001600081526020016000815260200160008152602001600081526020016060815260200160608152602001606081526020016060815260200160608152602001600081525090565b82805461314190614015565b90600052602060002090601f01602090048101928261316357600085556131aa565b82601f1061317c57805160ff19168380011785556131aa565b828001600101855582156131aa579182015b828111156131a957825182559160200191906001019061318e565b5b5090506131b79190613200565b5090565b60405180610100016040528060008152602001606081526020016000815260200160008152602001600081526020016060815260200160608152602001600081525090565b5b80821115613219576000816000905550600101613201565b5090565b6000604051905090565b600080fd5b600080fd5b6000819050919050565b61324481613231565b811461324f57600080fd5b50565b6000813590506132618161323b565b92915050565b60006020828403121561327d5761327c613227565b5b600061328b84828501613252565b91505092915050565b600081519050919050565b600082825260208201905092915050565b6000819050602082019050919050565b6132c981613231565b82525050565b600073ffffffffffffffffffffffffffffffffffffffff82169050919050565b60006132fa826132cf565b9050919050565b61330a816132ef565b82525050565b600081519050919050565b600082825260208201905092915050565b60005b8381101561334a57808201518184015260208101905061332f565b83811115613359576000848401525b50505050565b6000601f19601f8301169050919050565b600061337b82613310565b613385818561331b565b935061339581856020860161332c565b61339e8161335f565b840191505092915050565b6000610200830160008301516133c260008601826132c0565b5060208301516133d56020860182613301565b5060408301516133e860408601826132c0565b5060608301516133fb6060860182613301565b50608083015184820360808601526134138282613370565b91505060a083015184820360a086015261342d8282613370565b91505060c083015161344260c08601826132c0565b5060e083015161345560e08601826132c0565b5061010083015161346a6101008601826132c0565b5061012083015161347f6101208601826132c0565b506101408301518482036101408601526134998282613370565b9150506101608301518482036101608601526134b58282613370565b9150506101808301518482036101808601526134d18282613370565b9150506101a08301518482036101a08601526134ed8282613370565b9150506101c08301518482036101c08601526135098282613370565b9150506101e08301516135206101e08601826132c0565b508091505092915050565b600061353783836133a9565b905092915050565b6000602082019050919050565b600061355782613294565b613561818561329f565b935083602082028501613573856132b0565b8060005b858110156135af5784840389528151613590858261352b565b945061359b8361353f565b925060208a01995050600181019050613577565b50829750879550505050505092915050565b600060208201905081810360008301526135db818461354c565b905092915050565b6135ec816132ef565b81146135f757600080fd5b50565b600081359050613609816135e3565b92915050565b60008060006060848603121561362857613627613227565b5b6000613636868287016135fa565b935050602061364786828701613252565b925050604061365886828701613252565b9150509250925092565b60008115159050919050565b61367781613662565b82525050565b6000602082019050613692600083018461366e565b92915050565b600080fd5b600080fd5b7f4e487b7100000000000000000000000000000000000000000000000000000000600052604160045260246000fd5b6136da8261335f565b810181811067ffffffffffffffff821117156136f9576136f86136a2565b5b80604052505050565b600061370c61321d565b905061371882826136d1565b919050565b600067ffffffffffffffff821115613738576137376136a2565b5b6137418261335f565b9050602081019050919050565b82818337600083830152505050565b600061377061376b8461371d565b613702565b90508281526020810184848401111561378c5761378b61369d565b5b61379784828561374e565b509392505050565b600082601f8301126137b4576137b3613698565b5b81356137c484826020860161375d565b91505092915050565b600080600080608085870312156137e7576137e6613227565b5b60006137f587828801613252565b945050602061380687828801613252565b935050604061381787828801613252565b925050606085013567ffffffffffffffff8111156138385761383761322c565b5b6138448782880161379f565b91505092959194509250565b6000806040838503121561386757613866613227565b5b600061387585828601613252565b925050602061388685828601613252565b9150509250929050565b6000610200830160008301516138a960008601826132c0565b5060208301516138bc6020860182613301565b5060408301516138cf60408601826132c0565b5060608301516138e26060860182613301565b50608083015184820360808601526138fa8282613370565b91505060a083015184820360a08601526139148282613370565b91505060c083015161392960c08601826132c0565b5060e083015161393c60e08601826132c0565b506101008301516139516101008601826132c0565b506101208301516139666101208601826132c0565b506101408301518482036101408601526139808282613370565b91505061016083015184820361016086015261399c8282613370565b9150506101808301518482036101808601526139b88282613370565b9150506101a08301518482036101a08601526139d48282613370565b9150506101c08301518482036101c08601526139f08282613370565b9150506101e0830151613a076101e08601826132c0565b508091505092915050565b60006020820190508181036000830152613a2c8184613890565b905092915050565b60008060408385031215613a4b57613a4a613227565b5b6000613a59858286016135fa565b9250506020613a6a85828601613252565b9150509250929050565b60008060408385031215613a8b57613a8a613227565b5b600083013567ffffffffffffffff811115613aa957613aa861322c565b5b613ab58582860161379f565b925050602083013567ffffffffffffffff811115613ad657613ad561322c565b5b613ae28582860161379f565b9150509250929050565b613af581613231565b82525050565b6000602082019050613b106000830184613aec565b92915050565b600081519050919050565b600082825260208201905092915050565b6000819050602082019050919050565b600061010083016000830151613b5b60008601826132c0565b5060208301518482036020860152613b738282613370565b9150506040830151613b8860408601826132c0565b506060830151613b9b60608601826132c0565b506080830151613bae60808601826132c0565b5060a083015184820360a0860152613bc68282613370565b91505060c083015184820360c0860152613be08282613370565b91505060e0830151613bf560e08601826132c0565b508091505092915050565b6000613c0c8383613b42565b905092915050565b6000602082019050919050565b6000613c2c82613b16565b613c368185613b21565b935083602082028501613c4885613b32565b8060005b85811015613c845784840389528151613c658582613c00565b9450613c7083613c14565b925060208a01995050600181019050613c4c565b50829750879550505050505092915050565b60006020820190508181036000830152613cb08184613c21565b905092915050565b613cc181613662565b8114613ccc57600080fd5b50565b600081359050613cde81613cb8565b92915050565b600080600060608486031215613cfd57613cfc613227565b5b6000613d0b86828701613252565b9350506020613d1c86828701613252565b9250506040613d2d86828701613ccf565b9150509250925092565b60008060008060808587031215613d5157613d50613227565b5b6000613d5f87828801613252565b9450506020613d7087828801613252565b935050604085013567ffffffffffffffff811115613d9157613d9061322c565b5b613d9d8782880161379f565b925050606085013567ffffffffffffffff811115613dbe57613dbd61322c565b5b613dca8782880161379f565b91505092959194509250565b600080600080600060a08688031215613df257613df1613227565b5b6000613e0088828901613252565b9550506020613e1188828901613252565b9450506040613e22888289016135fa565b935050606086013567ffffffffffffffff811115613e4357613e4261322c565b5b613e4f8882890161379f565b925050608086013567ffffffffffffffff811115613e7057613e6f61322c565b5b613e7c8882890161379f565b9150509295509295909350565b600061010083016000830151613ea260008601826132c0565b5060208301518482036020860152613eba8282613370565b9150506040830151613ecf60408601826132c0565b506060830151613ee260608601826132c0565b506080830151613ef560808601826132c0565b5060a083015184820360a0860152613f0d8282613370565b91505060c083015184820360c0860152613f278282613370565b91505060e0830151613f3c60e08601826132c0565b508091505092915050565b60006020820190508181036000830152613f618184613e89565b905092915050565b600082825260208201905092915050565b7f436c756220646f6573206e6f7420657869737400000000000000000000000000600082015250565b6000613fb0601383613f69565b9150613fbb82613f7a565b602082019050919050565b60006020820190508181036000830152613fdf81613fa3565b9050919050565b7f4e487b7100000000000000000000000000000000000000000000000000000000600052602260045260246000fd5b6000600282049050600182168061402d57607f821691505b6020821081141561404157614040613fe6565b5b50919050565b7f4e487b7100000000000000000000000000000000000000000000000000000000600052603260045260246000fd5b7f4e487b7100000000000000000000000000000000000000000000000000000000600052601160045260246000fd5b60006140b082613231565b91507fffffffffffffffffffffffffffffffffffffffffffffffffffffffffffffffff8214156140e3576140e2614076565b5b600182019050919050565b7f74686520636c756220646f6573206e6f74206578697374000000000000000000600082015250565b6000614124601783613f69565b915061412f826140ee565b602082019050919050565b6000602082019050818103600083015261415381614117565b9050919050565b7f5468652070726f706f73616c20646f6573206e6f742065786973740000000000600082015250565b6000614190601b83613f69565b915061419b8261415a565b602082019050919050565b600060208201905081810360008301526141bf81614183565b9050919050565b7f596f752063616e2774206265666f72652074686520566f74696e67206465616460008201527f6c696e6500000000000000000000000000000000000000000000000000000000602082015250565b6000614222602483613f69565b915061422d826141c6565b604082019050919050565b6000602082019050818103600083015261425181614215565b9050919050565b7f54686520666f7220766f7465206973206c657373207468616e20416761696e7360008201527f7400000000000000000000000000000000000000000000000000000000000000602082015250565b60006142b4602183613f69565b91506142bf82614258565b604082019050919050565b600060208201905081810360008301526142e3816142a7565b9050919050565b7f596f7520617265206e6f742061206d656d626572206f662074686520636c7562600082015250565b6000614320602083613f69565b915061432b826142ea565b602082019050919050565b6000602082019050818103600083015261434f81614313565b9050919050565b7f4f6e6c79207468652063726561746f72206f66207468652070726f706f73616c60008201527f2063616e20657865637574652069740000000000000000000000000000000000602082015250565b60006143b2602f83613f69565b91506143bd82614356565b604082019050919050565b600060208201905081810360008301526143e1816143a5565b9050919050565b7f54686520616d6f756e7420657863656564732074686520706f6f6c206f66207460008201527f686520636c756200000000000000000000000000000000000000000000000000602082015250565b6000614444602783613f69565b915061444f826143e8565b604082019050919050565b6000602082019050818103600083015261447381614437565b9050919050565b7f5468652070726f706f73616c20686173206e6f74206265656e20617070726f7660008201527f6564000000000000000000000000000000000000000000000000000000000000602082015250565b60006144d6602283613f69565b91506144e18261447a565b604082019050919050565b60006020820190508181036000830152614505816144c9565b9050919050565b600061451782613231565b915061452283613231565b92508282101561453557614534614076565b5b828203905092915050565b7f596f75206d7573742073656e642045564d4f5320746f20636f6e74726962757460008201527f6500000000000000000000000000000000000000000000000000000000000000602082015250565b600061459c602183613f69565b91506145a782614540565b604082019050919050565b600060208201905081810360008301526145cb8161458f565b9050919050565b60006145dd82613231565b91506145e883613231565b9250827fffffffffffffffffffffffffffffffffffffffffffffffffffffffffffffffff0382111561461d5761461c614076565b5b828201905092915050565b7f566f74696e6720506572696f642046696e697368656400000000000000000000600082015250565b600061465e601683613f69565b915061466982614628565b602082019050919050565b6000602082019050818103600083015261468d81614651565b9050919050565b7f596f75206861766520616c726561647920766f746564206f6e2074686973207060008201527f726f706f73616c00000000000000000000000000000000000000000000000000602082015250565b60006146f0602783613f69565b91506146fb82614694565b604082019050919050565b6000602082019050818103600083015261471f816146e3565b9050919050565b600081905092915050565b60008190508160005260206000209050919050565b6000815461475381614015565b61475d8186614726565b945060018216600081146147785760018114614789576147bc565b60ff198316865281860193506147bc565b61479285614731565b60005b838110156147b457815481890152600182019150602081019050614795565b838801955050505b50505092915050565b60006147d18284614746565b915081905092915050565b7f5468652070726f706f73616c206973206e6f206c6f6e6765722070656e64696e60008201527f6700000000000000000000000000000000000000000000000000000000000000602082015250565b6000614838602183613f69565b9150614843826147dc565b604082019050919050565b600060208201905081810360008301526148678161482b565b9050919050565b7f54686520636c756220646f6573206e6f74206578697374000000000000000000600082015250565b60006148a4601783613f69565b91506148af8261486e565b602082019050919050565b600060208201905081810360008301526148d381614897565b9050919050565b7f54686520616d6f756e74206f66207468652070726f706f73616c206d7573742060008201527f62652067726561746572207468616e2030000000000000000000000000000000602082015250565b6000614936603183613f69565b9150614941826148da565b604082019050919050565b6000602082019050818103600083015261496581614929565b9050919050565b7f54686520636c75622069732066756c6c2c206e6f206d6f7265206d656d62657260008201527f732063616e206265206164646564000000000000000000000000000000000000602082015250565b60006149c8602e83613f69565b91506149d38261496c565b604082019050919050565b600060208201905081810360008301526149f7816149bb565b9050919050565b7f596f752061726520616c72656164792061206d656d626572206f66207468652060008201527f636c756200000000000000000000000000000000000000000000000000000000602082015250565b6000614a5a602483613f69565b9150614a65826149fe565b604082019050919050565b60006020820190508181036000830152614a8981614a4d565b9050919050565b7f5468652070726f706f73616c206973206e6f7420696e2070656e64696e67207360008201527f7461747573000000000000000000000000000000000000000000000000000000602082015250565b6000614aec602583613f69565b9150614af782614a90565b604082019050919050565b60006020820190508181036000830152614b1b81614adf565b9050919050565b7f4f6e6c79207468652070726f706f73616c2063726561746f722063616e20636c60008201527f6f7365207468652070726f706f73616c00000000000000000000000000000000602082015250565b6000614b7e603083613f69565b9150614b8982614b22565b604082019050919050565b60006020820190508181036000830152614bad81614b71565b905091905056fea2646970667358221220e9466e540f36db555227e9f3fcc10d9348552216f904486c15bfec62ea9710ee64736f6c634300080a0033",
  "linkReferences": {},
  "deployedLinkReferences": {}
}