{
  "_format": "hh-sol-artifact-1",
  "contractName": "InvestmentClub",
  "sourceName": "contracts/InvestmentClub.sol",
  "abi": [
    {
      "inputs": [],
      "stateMutability": "nonpayable",
      "type": "constructor"
    },
    {
      "inputs": [
        {
          "internalType": "uint256",
          "name": "clubId",
          "type": "uint256"
        },
        {
          "internalType": "uint256",
          "name": "proposalId",
          "type": "uint256"
        }
      ],
      "name": "closeProposal",
      "outputs": [],
      "stateMutability": "nonpayable",
      "type": "function"
    },
    {
      "inputs": [
        {
          "internalType": "uint256",
          "name": "clubId",
          "type": "uint256"
        }
      ],
      "name": "contributeToClub",
      "outputs": [],
      "stateMutability": "payable",
      "type": "function"
    },
    {
      "inputs": [
        {
          "internalType": "string",
          "name": "name",
          "type": "string"
        },
        {
          "internalType": "string",
          "name": "Cid",
          "type": "string"
        }
      ],
      "name": "createClub",
      "outputs": [
        {
          "internalType": "uint256",
          "name": "",
          "type": "uint256"
        }
      ],
      "stateMutability": "nonpayable",
      "type": "function"
    },
    {
      "inputs": [
        {
          "internalType": "uint256",
          "name": "clubId",
          "type": "uint256"
        },
        {
          "internalType": "uint256",
          "name": "amount",
          "type": "uint256"
        },
        {
          "internalType": "address",
          "name": "destination",
          "type": "address"
        },
        {
          "internalType": "string",
          "name": "description",
          "type": "string"
        },
        {
          "internalType": "string",
          "name": "Cid",
          "type": "string"
        }
      ],
      "name": "createProposal",
      "outputs": [],
      "stateMutability": "nonpayable",
      "type": "function"
    },
    {
      "inputs": [
        {
          "internalType": "uint256",
          "name": "clubId",
          "type": "uint256"
        },
        {
          "internalType": "uint256",
          "name": "proposalId",
          "type": "uint256"
        }
      ],
      "name": "executeProposal",
      "outputs": [],
      "stateMutability": "payable",
      "type": "function"
    },
    {
      "inputs": [
        {
          "internalType": "address",
          "name": "userAddress",
          "type": "address"
        },
        {
          "internalType": "uint256",
          "name": "clubId",
          "type": "uint256"
        }
      ],
      "name": "getBalanceByClub",
      "outputs": [
        {
          "internalType": "uint256",
          "name": "",
          "type": "uint256"
        }
      ],
      "stateMutability": "view",
      "type": "function"
    },
    {
      "inputs": [
        {
          "internalType": "uint256",
          "name": "clubId",
          "type": "uint256"
        },
        {
          "internalType": "uint256",
          "name": "proposalId",
          "type": "uint256"
        },
        {
          "internalType": "string",
          "name": "_Piece",
          "type": "string"
        },
        {
          "internalType": "string",
          "name": "_carsize",
          "type": "string"
        }
      ],
      "name": "getCarpiece",
      "outputs": [],
      "stateMutability": "nonpayable",
      "type": "function"
    },
    {
      "inputs": [
        {
          "internalType": "uint256",
          "name": "clubId",
          "type": "uint256"
        }
      ],
      "name": "getClubById",
      "outputs": [
        {
          "components": [
            {
              "internalType": "uint256",
              "name": "clubId",
              "type": "uint256"
            },
            {
              "internalType": "string",
              "name": "name",
              "type": "string"
            },
            {
              "internalType": "uint256",
              "name": "memberCount",
              "type": "uint256"
            },
            {
              "internalType": "uint256",
              "name": "proposalCount",
              "type": "uint256"
            },
            {
              "internalType": "uint256",
              "name": "pool",
              "type": "uint256"
            },
            {
              "internalType": "string",
              "name": "CID",
              "type": "string"
            },
            {
              "internalType": "string",
              "name": "posdiverification",
              "type": "string"
            },
            {
              "internalType": "uint256",
              "name": "DealId",
              "type": "uint256"
            }
          ],
          "internalType": "struct InvestmentClub.ClubInfo",
          "name": "",
          "type": "tuple"
        }
      ],
      "stateMutability": "view",
      "type": "function"
    },
    {
      "inputs": [],
      "name": "getMyClubs",
      "outputs": [
        {
          "components": [
            {
              "internalType": "uint256",
              "name": "clubId",
              "type": "uint256"
            },
            {
              "internalType": "string",
              "name": "name",
              "type": "string"
            },
            {
              "internalType": "uint256",
              "name": "memberCount",
              "type": "uint256"
            },
            {
              "internalType": "uint256",
              "name": "proposalCount",
              "type": "uint256"
            },
            {
              "internalType": "uint256",
              "name": "pool",
              "type": "uint256"
            },
            {
              "internalType": "string",
              "name": "CID",
              "type": "string"
            },
            {
              "internalType": "string",
              "name": "posdiverification",
              "type": "string"
            },
            {
              "internalType": "uint256",
              "name": "DealId",
              "type": "uint256"
            }
          ],
          "internalType": "struct InvestmentClub.ClubInfo[]",
          "name": "",
          "type": "tuple[]"
        }
      ],
      "stateMutability": "view",
      "type": "function"
    },
    {
      "inputs": [
        {
          "internalType": "uint256",
          "name": "clubId",
          "type": "uint256"
        },
        {
          "internalType": "uint256",
          "name": "proposalId",
          "type": "uint256"
        }
      ],
      "name": "getProposalById",
      "outputs": [
        {
          "components": [
            {
              "internalType": "uint256",
              "name": "id",
              "type": "uint256"
            },
            {
              "internalType": "address",
              "name": "creator",
              "type": "address"
            },
            {
              "internalType": "uint256",
              "name": "amount",
              "type": "uint256"
            },
            {
              "internalType": "address",
              "name": "destination",
              "type": "address"
            },
            {
              "internalType": "string",
              "name": "status",
              "type": "string"
            },
            {
              "internalType": "string",
              "name": "description",
              "type": "string"
            },
            {
              "internalType": "uint256",
              "name": "votesFor",
              "type": "uint256"
            },
            {
              "internalType": "uint256",
              "name": "votesAgainst",
              "type": "uint256"
            },
            {
              "internalType": "uint256",
              "name": "proposedAt",
              "type": "uint256"
            },
            {
              "internalType": "uint256",
              "name": "proposalExpireAt",
              "type": "uint256"
            },
            {
              "internalType": "string",
              "name": "Cid",
              "type": "string"
            },
            {
              "internalType": "string",
              "name": "PieceCid",
              "type": "string"
            },
            {
              "internalType": "string",
              "name": "carsize",
              "type": "string"
            },
            {
              "internalType": "string",
              "name": "posdiverification",
              "type": "string"
            },
            {
              "internalType": "string",
              "name": "storageProvider",
              "type": "string"
            },
            {
              "internalType": "uint256",
              "name": "DealId",
              "type": "uint256"
            }
          ],
          "internalType": "struct InvestmentClub.ProposalInfo",
          "name": "",
          "type": "tuple"
        }
      ],
      "stateMutability": "view",
      "type": "function"
    },
    {
      "inputs": [
        {
          "internalType": "uint256",
          "name": "clubId",
          "type": "uint256"
        }
      ],
      "name": "getProposalsByClub",
      "outputs": [
        {
          "components": [
            {
              "internalType": "uint256",
              "name": "id",
              "type": "uint256"
            },
            {
              "internalType": "address",
              "name": "creator",
              "type": "address"
            },
            {
              "internalType": "uint256",
              "name": "amount",
              "type": "uint256"
            },
            {
              "internalType": "address",
              "name": "destination",
              "type": "address"
            },
            {
              "internalType": "string",
              "name": "status",
              "type": "string"
            },
            {
              "internalType": "string",
              "name": "description",
              "type": "string"
            },
            {
              "internalType": "uint256",
              "name": "votesFor",
              "type": "uint256"
            },
            {
              "internalType": "uint256",
              "name": "votesAgainst",
              "type": "uint256"
            },
            {
              "internalType": "uint256",
              "name": "proposedAt",
              "type": "uint256"
            },
            {
              "internalType": "uint256",
              "name": "proposalExpireAt",
              "type": "uint256"
            },
            {
              "internalType": "string",
              "name": "Cid",
              "type": "string"
            },
            {
              "internalType": "string",
              "name": "PieceCid",
              "type": "string"
            },
            {
              "internalType": "string",
              "name": "carsize",
              "type": "string"
            },
            {
              "internalType": "string",
              "name": "posdiverification",
              "type": "string"
            },
            {
              "internalType": "string",
              "name": "storageProvider",
              "type": "string"
            },
            {
              "internalType": "uint256",
              "name": "DealId",
              "type": "uint256"
            }
          ],
          "internalType": "struct InvestmentClub.ProposalInfo[]",
          "name": "",
          "type": "tuple[]"
        }
      ],
      "stateMutability": "view",
      "type": "function"
    },
    {
      "inputs": [
        {
          "internalType": "uint256",
          "name": "clubId",
          "type": "uint256"
        },
        {
          "internalType": "uint256",
          "name": "proposalId",
          "type": "uint256"
        },
        {
          "internalType": "uint256",
          "name": "_dealId",
          "type": "uint256"
        },
        {
          "internalType": "string",
          "name": "_storage",
          "type": "string"
        }
      ],
      "name": "getdelandstorgae",
      "outputs": [],
      "stateMutability": "nonpayable",
      "type": "function"
    },
    {
      "inputs": [
        {
          "internalType": "address",
          "name": "sender",
          "type": "address"
        },
        {
          "internalType": "uint256",
          "name": "proposalId",
          "type": "uint256"
        },
        {
          "internalType": "uint256",
          "name": "clubId",
          "type": "uint256"
        }
      ],
      "name": "hasVoted",
      "outputs": [
        {
          "internalType": "bool",
          "name": "",
          "type": "bool"
        }
      ],
      "stateMutability": "view",
      "type": "function"
    },
    {
      "inputs": [
        {
          "internalType": "uint256",
          "name": "clubId",
          "type": "uint256"
        }
      ],
      "name": "isClubFull",
      "outputs": [
        {
          "internalType": "bool",
          "name": "",
          "type": "bool"
        }
      ],
      "stateMutability": "view",
      "type": "function"
    },
    {
      "inputs": [
        {
          "internalType": "uint256",
          "name": "clubId",
          "type": "uint256"
        }
      ],
      "name": "isClubIdExist",
      "outputs": [
        {
          "internalType": "bool",
          "name": "",
          "type": "bool"
        }
      ],
      "stateMutability": "view",
      "type": "function"
    },
    {
      "inputs": [
        {
          "internalType": "address",
          "name": "memberAddress",
          "type": "address"
        },
        {
          "internalType": "uint256",
          "name": "clubId",
          "type": "uint256"
        }
      ],
      "name": "isMemberOfClub",
      "outputs": [
        {
          "internalType": "bool",
          "name": "",
          "type": "bool"
        }
      ],
      "stateMutability": "view",
      "type": "function"
    },
    {
      "inputs": [
        {
          "internalType": "uint256",
          "name": "proposalId",
          "type": "uint256"
        },
        {
          "internalType": "uint256",
          "name": "clubId",
          "type": "uint256"
        }
      ],
      "name": "isProposalIdExist",
      "outputs": [
        {
          "internalType": "bool",
          "name": "",
          "type": "bool"
        }
      ],
      "stateMutability": "view",
      "type": "function"
    },
    {
      "inputs": [
        {
          "internalType": "uint256",
          "name": "clubId",
          "type": "uint256"
        }
      ],
      "name": "joinClub",
      "outputs": [],
      "stateMutability": "nonpayable",
      "type": "function"
    },
    {
      "inputs": [
        {
          "internalType": "uint256",
          "name": "clubId",
          "type": "uint256"
        }
      ],
      "name": "leaveClub",
      "outputs": [],
      "stateMutability": "nonpayable",
      "type": "function"
    },
    {
      "inputs": [],
      "name": "listClubs",
      "outputs": [
        {
          "components": [
            {
              "internalType": "uint256",
              "name": "clubId",
              "type": "uint256"
            },
            {
              "internalType": "string",
              "name": "name",
              "type": "string"
            },
            {
              "internalType": "uint256",
              "name": "memberCount",
              "type": "uint256"
            },
            {
              "internalType": "uint256",
              "name": "proposalCount",
              "type": "uint256"
            },
            {
              "internalType": "uint256",
              "name": "pool",
              "type": "uint256"
            },
            {
              "internalType": "string",
              "name": "CID",
              "type": "string"
            },
            {
              "internalType": "string",
              "name": "posdiverification",
              "type": "string"
            },
            {
              "internalType": "uint256",
              "name": "DealId",
              "type": "uint256"
            }
          ],
          "internalType": "struct InvestmentClub.ClubInfo[]",
          "name": "",
          "type": "tuple[]"
        }
      ],
      "stateMutability": "view",
      "type": "function"
    },
    {
      "inputs": [
        {
          "internalType": "uint256",
          "name": "clubId",
          "type": "uint256"
        },
        {
          "internalType": "uint256",
          "name": "proposalId",
          "type": "uint256"
        }
      ],
      "name": "proverifiydocs",
      "outputs": [],
      "stateMutability": "nonpayable",
      "type": "function"
    },
    {
      "inputs": [
        {
          "internalType": "uint256",
          "name": "clubId",
          "type": "uint256"
        }
      ],
      "name": "verifiydocs",
      "outputs": [],
      "stateMutability": "nonpayable",
      "type": "function"
    },
    {
      "inputs": [
        {
          "internalType": "uint256",
          "name": "clubId",
          "type": "uint256"
        },
        {
          "internalType": "uint256",
          "name": "proposalId",
          "type": "uint256"
        },
        {
          "internalType": "bool",
          "name": "vote",
          "type": "bool"
        }
      ],
      "name": "voteOnProposal",
      "outputs": [],
      "stateMutability": "nonpayable",
      "type": "function"
    }
  ],
  "bytecode": "0x608060405234801561001057600080fd5b506000600181905550614a61806100286000396000f3fe6080604052600436106101405760003560e01c80635ff847fb116100b65780639d9087b91161006f5780639d9087b914610474578063c3741fed1461049d578063c4670878146104da578063e154274214610517578063e7613ea814610540578063eec8e0db1461056957610140565b80635ff847fb14610354578063647e598b1461037f5780636764fd48146103a857806382b7661b146103e5578063890e24561461040e57806389972a321461044b57610140565b8063288509b411610108578063288509b41461024157806334fa3d831461025d57806335a1930f1461029a5780634d7f75c3146102d7578063549710be1461030057806354a2e2331461032b57610140565b8063058694a9146101455780630ee29404146101825780631063fd19146101bf57806314204fc6146101e85780631ab7671214610225575b600080fd5b34801561015157600080fd5b5061016c60048036038101906101679190613170565b6105a6565b60405161017991906134ca565b60405180910390f35b34801561018e57600080fd5b506101a960048036038101906101a49190613518565b610ba8565b6040516101b69190613586565b60405180910390f35b3480156101cb57600080fd5b506101e660048036038101906101e191906136d6565b610c27565b005b3480156101f457600080fd5b5061020f600480360381019061020a9190613759565b610c7a565b60405161021c919061391b565b60405180910390f35b61023f600480360381019061023a9190613759565b61121a565b005b61025b60048036038101906102569190613170565b6114be565b005b34801561026957600080fd5b50610284600480360381019061027f919061393d565b611628565b6040516102919190613586565b60405180910390f35b3480156102a657600080fd5b506102c160048036038101906102bc919061397d565b6116d7565b6040516102ce9190613a04565b60405180910390f35b3480156102e357600080fd5b506102fe60048036038101906102f99190613170565b611880565b005b34801561030c57600080fd5b506103156119ba565b6040516103229190613b9f565b60405180910390f35b34801561033757600080fd5b50610352600480360381019061034d9190613bed565b611c8c565b005b34801561036057600080fd5b50610369611f63565b6040516103769190613b9f565b60405180910390f35b34801561038b57600080fd5b506103a660048036038101906103a19190613c40565b61221a565b005b3480156103b457600080fd5b506103cf60048036038101906103ca9190613170565b61227d565b6040516103dc9190613586565b60405180910390f35b3480156103f157600080fd5b5061040c60048036038101906104079190613170565b61229f565b005b34801561041a57600080fd5b506104356004803603810190610430919061393d565b61234f565b6040516104429190613a04565b60405180910390f35b34801561045757600080fd5b50610472600480360381019061046d9190613cdf565b6123ba565b005b34801561048057600080fd5b5061049b60048036038101906104969190613759565b612783565b005b3480156104a957600080fd5b506104c460048036038101906104bf9190613170565b612800565b6040516104d19190613e50565b60405180910390f35b3480156104e657600080fd5b5061050160048036038101906104fc9190613170565b612a66565b60405161050e9190613586565b60405180910390f35b34801561052357600080fd5b5061053e60048036038101906105399190613170565b612a88565b005b34801561054c57600080fd5b5061056760048036038101906105629190613759565b612c5f565b005b34801561057557600080fd5b50610590600480360381019061058b9190613759565b612e96565b60405161059d9190613586565b60405180910390f35b60606105b18261227d565b6105f0576040517f08c379a00000000000000000000000000000000000000000000000000000000081526004016105e790613ecf565b60405180910390fd5b600080600084815260200190815260200160002090506000816006015467ffffffffffffffff811115610626576106256135ab565b5b60405190808252806020026020018201604052801561065f57816020015b61064c612f95565b8152602001906001900390816106445790505b509050600080600190505b83600601548111610b9c5760008460050160008381526020019081526020016000209050604051806102000160405280826000015481526020018260010160009054906101000a900473ffffffffffffffffffffffffffffffffffffffff1673ffffffffffffffffffffffffffffffffffffffff168152602001826002015481526020018260030160009054906101000a900473ffffffffffffffffffffffffffffffffffffffff1673ffffffffffffffffffffffffffffffffffffffff16815260200182600401805461073d90613f1e565b80601f016020809104026020016040519081016040528092919081815260200182805461076990613f1e565b80156107b65780601f1061078b576101008083540402835291602001916107b6565b820191906000526020600020905b81548152906001019060200180831161079957829003601f168201915b505050505081526020018260050180546107cf90613f1e565b80601f01602080910402602001604051908101604052809291908181526020018280546107fb90613f1e565b80156108485780601f1061081d57610100808354040283529160200191610848565b820191906000526020600020905b81548152906001019060200180831161082b57829003601f168201915b505050505081526020018260060154815260200182600701548152602001826008015481526020018260090154815260200182600a01805461088990613f1e565b80601f01602080910402602001604051908101604052809291908181526020018280546108b590613f1e565b80156109025780601f106108d757610100808354040283529160200191610902565b820191906000526020600020905b8154815290600101906020018083116108e557829003601f168201915b5050505050815260200182600b01805461091b90613f1e565b80601f016020809104026020016040519081016040528092919081815260200182805461094790613f1e565b80156109945780601f1061096957610100808354040283529160200191610994565b820191906000526020600020905b81548152906001019060200180831161097757829003601f168201915b5050505050815260200182600c0180546109ad90613f1e565b80601f01602080910402602001604051908101604052809291908181526020018280546109d990613f1e565b8015610a265780601f106109fb57610100808354040283529160200191610a26565b820191906000526020600020905b815481529060010190602001808311610a0957829003601f168201915b5050505050815260200182600d018054610a3f90613f1e565b80601f0160208091040260200160405190810160405280929190818152602001828054610a6b90613f1e565b8015610ab85780601f10610a8d57610100808354040283529160200191610ab8565b820191906000526020600020905b815481529060010190602001808311610a9b57829003601f168201915b5050505050815260200182600e018054610ad190613f1e565b80601f0160208091040260200160405190810160405280929190818152602001828054610afd90613f1e565b8015610b4a5780601f10610b1f57610100808354040283529160200191610b4a565b820191906000526020600020905b815481529060010190602001808311610b2d57829003601f168201915b5050505050815260200182600f0154815250848481518110610b6f57610b6e613f50565b5b60200260200101819052508280610b8590613fae565b935050508080610b9490613fae565b91505061066a565b50819350505050919050565b6000806000838152602001908152602001600020600501600084815260200190815260200160002060100160008573ffffffffffffffffffffffffffffffffffffffff1673ffffffffffffffffffffffffffffffffffffffff16815260200190815260200160002060009054906101000a900460ff1690509392505050565b6000806000868152602001908152602001600020600501600085815260200190815260200160002090508281600f01819055508181600e019080519060200190610c7292919061303e565b505050505050565b610c82612f95565b610c8b8361227d565b610cca576040517f08c379a0000000000000000000000000000000000000000000000000000000008152600401610cc190614043565b60405180910390fd5b610cd48284612e96565b610d13576040517f08c379a0000000000000000000000000000000000000000000000000000000008152600401610d0a906140af565b60405180910390fd5b6000806000858152602001908152602001600020600501600084815260200190815260200160002090506000604051806102000160405280836000015481526020018360010160009054906101000a900473ffffffffffffffffffffffffffffffffffffffff1673ffffffffffffffffffffffffffffffffffffffff168152602001836002015481526020018360030160009054906101000a900473ffffffffffffffffffffffffffffffffffffffff1673ffffffffffffffffffffffffffffffffffffffff168152602001836004018054610dee90613f1e565b80601f0160208091040260200160405190810160405280929190818152602001828054610e1a90613f1e565b8015610e675780601f10610e3c57610100808354040283529160200191610e67565b820191906000526020600020905b815481529060010190602001808311610e4a57829003601f168201915b50505050508152602001836005018054610e8090613f1e565b80601f0160208091040260200160405190810160405280929190818152602001828054610eac90613f1e565b8015610ef95780601f10610ece57610100808354040283529160200191610ef9565b820191906000526020600020905b815481529060010190602001808311610edc57829003601f168201915b505050505081526020018360060154815260200183600701548152602001836008015481526020018360090154815260200183600a018054610f3a90613f1e565b80601f0160208091040260200160405190810160405280929190818152602001828054610f6690613f1e565b8015610fb35780601f10610f8857610100808354040283529160200191610fb3565b820191906000526020600020905b815481529060010190602001808311610f9657829003601f168201915b5050505050815260200183600b018054610fcc90613f1e565b80601f0160208091040260200160405190810160405280929190818152602001828054610ff890613f1e565b80156110455780601f1061101a57610100808354040283529160200191611045565b820191906000526020600020905b81548152906001019060200180831161102857829003601f168201915b5050505050815260200183600c01805461105e90613f1e565b80601f016020809104026020016040519081016040528092919081815260200182805461108a90613f1e565b80156110d75780601f106110ac576101008083540402835291602001916110d7565b820191906000526020600020905b8154815290600101906020018083116110ba57829003601f168201915b5050505050815260200183600d0180546110f090613f1e565b80601f016020809104026020016040519081016040528092919081815260200182805461111c90613f1e565b80156111695780601f1061113e57610100808354040283529160200191611169565b820191906000526020600020905b81548152906001019060200180831161114c57829003601f168201915b5050505050815260200183600e01805461118290613f1e565b80601f01602080910402602001604051908101604052809291908181526020018280546111ae90613f1e565b80156111fb5780601f106111d0576101008083540402835291602001916111fb565b820191906000526020600020905b8154815290600101906020018083116111de57829003601f168201915b5050505050815260200183600f01548152509050809250505092915050565b6112238261227d565b611262576040517f08c379a000000000000000000000000000000000000000000000000000000000815260040161125990614043565b60405180910390fd5b61126c8282612ecd565b156112ac576040517f08c379a00000000000000000000000000000000000000000000000000000000081526004016112a390614141565b60405180910390fd5b600080600084815260200190815260200160002090506112cc3384611628565b61130b576040517f08c379a0000000000000000000000000000000000000000000000000000000008152600401611302906141ad565b60405180910390fd5b6113158284612e96565b611354576040517f08c379a000000000000000000000000000000000000000000000000000000000815260040161134b906140af565b60405180910390fd5b61135e8383612f08565b61139d576040517f08c379a00000000000000000000000000000000000000000000000000000000081526004016113949061423f565b60405180910390fd5b60008160050160008481526020019081526020016000209050806002015482600401541015611401576040517f08c379a00000000000000000000000000000000000000000000000000000000081526004016113f8906142d1565b60405180910390fd5b806007015481600601541161144b576040517f08c379a000000000000000000000000000000000000000000000000000000000815260040161144290614363565b60405180910390fd5b6040518060400160405280600881526020017f457865637574656400000000000000000000000000000000000000000000000081525081600401908051906020019061149892919061303e565b5080600201548260040160008282546114b19190614383565b9250508190555050505050565b6114c78161227d565b611506576040517f08c379a00000000000000000000000000000000000000000000000000000000081526004016114fd90614043565b60405180910390fd5b600080600083815260200190815260200160002090506115263383611628565b611565576040517f08c379a000000000000000000000000000000000000000000000000000000000815260040161155c906141ad565b60405180910390fd5b600034116115a8576040517f08c379a000000000000000000000000000000000000000000000000000000000815260040161159f90614429565b60405180910390fd5b60008160020160003373ffffffffffffffffffffffffffffffffffffffff1673ffffffffffffffffffffffffffffffffffffffff1681526020019081526020016000209050348160010160008282546116019190614449565b925050819055503482600401600082825461161c9190614449565b92505081905550505050565b60008073ffffffffffffffffffffffffffffffffffffffff1660008084815260200190815260200160002060020160008573ffffffffffffffffffffffffffffffffffffffff1673ffffffffffffffffffffffffffffffffffffffff16815260200190815260200160002060000160009054906101000a900473ffffffffffffffffffffffffffffffffffffffff1673ffffffffffffffffffffffffffffffffffffffff161415905092915050565b600080600180546116e89190614449565b9050600080600083815260200190815260200160002090508181600001819055508481600101908051906020019061172192919061303e565b506000816004018190555060008160060181905550600181600301819055508381600701908051906020019061175892919061303e565b506040518060400160405280600b81526020017f556e2d56657269666965640000000000000000000000000000000000000000008152508160080190805190602001906117a692919061303e565b50600060405180604001604052803373ffffffffffffffffffffffffffffffffffffffff16815260200160008152509050808260020160003373ffffffffffffffffffffffffffffffffffffffff1673ffffffffffffffffffffffffffffffffffffffff16815260200190815260200160002060008201518160000160006101000a81548173ffffffffffffffffffffffffffffffffffffffff021916908373ffffffffffffffffffffffffffffffffffffffff160217905550602082015181600101559050508260018190555082935050505092915050565b6118898161227d565b6118c8576040517f08c379a00000000000000000000000000000000000000000000000000000000081526004016118bf90614043565b60405180910390fd5b600080600083815260200190815260200160002090506118e83383611628565b611927576040517f08c379a000000000000000000000000000000000000000000000000000000000815260040161191e906141ad565b60405180910390fd5b600181600301600082825461193c9190614383565b925050819055508060020160003373ffffffffffffffffffffffffffffffffffffffff1673ffffffffffffffffffffffffffffffffffffffff168152602001908152602001600020600080820160006101000a81549073ffffffffffffffffffffffffffffffffffffffff0219169055600182016000905550505050565b6060600060015467ffffffffffffffff8111156119da576119d96135ab565b5b604051908082528060200260200182016040528015611a1357816020015b611a006130c4565b8152602001906001900390816119f85790505b509050600080600190505b6001548111611c835760008060008381526020019081526020016000209050611a4b338260000154611628565b15611c6f5760405180610100016040528082600001548152602001826001018054611a7590613f1e565b80601f0160208091040260200160405190810160405280929190818152602001828054611aa190613f1e565b8015611aee5780601f10611ac357610100808354040283529160200191611aee565b820191906000526020600020905b815481529060010190602001808311611ad157829003601f168201915b50505050508152602001826003015481526020018260060154815260200182600401548152602001826007018054611b2590613f1e565b80601f0160208091040260200160405190810160405280929190818152602001828054611b5190613f1e565b8015611b9e5780601f10611b7357610100808354040283529160200191611b9e565b820191906000526020600020905b815481529060010190602001808311611b8157829003601f168201915b50505050508152602001826008018054611bb790613f1e565b80601f0160208091040260200160405190810160405280929190818152602001828054611be390613f1e565b8015611c305780601f10611c0557610100808354040283529160200191611c30565b820191906000526020600020905b815481529060010190602001808311611c1357829003601f168201915b505050505081526020018260090154815250848481518110611c5557611c54613f50565b5b60200260200101819052508280611c6b90613fae565b9350505b508080611c7b90613fae565b915050611a1e565b50819250505090565b611c958361227d565b611cd4576040517f08c379a0000000000000000000000000000000000000000000000000000000008152600401611ccb90614043565b60405180910390fd5b611cde8383612ecd565b611d1d576040517f08c379a0000000000000000000000000000000000000000000000000000000008152600401611d14906144eb565b60405180910390fd5b60008060008581526020019081526020016000209050611d3d3385611628565b611d7c576040517f08c379a0000000000000000000000000000000000000000000000000000000008152600401611d73906141ad565b60405180910390fd5b611d868385612e96565b611dc5576040517f08c379a0000000000000000000000000000000000000000000000000000000008152600401611dbc906140af565b60405180910390fd5b60008160050160008581526020019081526020016000209050611de9338587610ba8565b15611e29576040517f08c379a0000000000000000000000000000000000000000000000000000000008152600401611e209061457d565b60405180910390fd5b6040518060400160405280600781526020017f50656e64696e67000000000000000000000000000000000000000000000000008152508051906020012081600401604051611e77919061463c565b604051809103902014611ebf576040517f08c379a0000000000000000000000000000000000000000000000000000000008152600401611eb6906146c5565b60405180910390fd5b828160100160003373ffffffffffffffffffffffffffffffffffffffff1673ffffffffffffffffffffffffffffffffffffffff16815260200190815260200160002060006101000a81548160ff0219169083151502179055508215611f3f576001816006016000828254611f339190614449565b92505081905550611f5c565b6001816007016000828254611f549190614449565b925050819055505b5050505050565b6060600060015467ffffffffffffffff811115611f8357611f826135ab565b5b604051908082528060200260200182016040528015611fbc57816020015b611fa96130c4565b815260200190600190039081611fa15790505b50905060005b600154811015612212576000806000600184611fde9190614449565b815260200190815260200160002090506040518061010001604052808260000154815260200182600101805461201390613f1e565b80601f016020809104026020016040519081016040528092919081815260200182805461203f90613f1e565b801561208c5780601f106120615761010080835404028352916020019161208c565b820191906000526020600020905b81548152906001019060200180831161206f57829003601f168201915b505050505081526020018260030154815260200182600601548152602001826004015481526020018260070180546120c390613f1e565b80601f01602080910402602001604051908101604052809291908181526020018280546120ef90613f1e565b801561213c5780601f106121115761010080835404028352916020019161213c565b820191906000526020600020905b81548152906001019060200180831161211f57829003601f168201915b5050505050815260200182600801805461215590613f1e565b80601f016020809104026020016040519081016040528092919081815260200182805461218190613f1e565b80156121ce5780601f106121a3576101008083540402835291602001916121ce565b820191906000526020600020905b8154815290600101906020018083116121b157829003601f168201915b5050505050815260200182600901548152508383815181106121f3576121f2613f50565b5b602002602001018190525050808061220a90613fae565b915050611fc2565b508091505090565b6000806000868152602001908152602001600020600501600085815260200190815260200160002090508281600b01908051906020019061225c92919061303e565b508181600c01908051906020019061227592919061303e565b505050505050565b6000806000808481526020019081526020016000206000015414159050919050565b6122a88161227d565b6122e7576040517f08c379a00000000000000000000000000000000000000000000000000000000081526004016122de90614731565b60405180910390fd5b600080600083815260200190815260200160002090506040518060400160405280600881526020017f566572696669656400000000000000000000000000000000000000000000000081525081600801908051906020019061234a92919061303e565b505050565b600080600080848152602001908152602001600020905060008160020160008673ffffffffffffffffffffffffffffffffffffffff1673ffffffffffffffffffffffffffffffffffffffff168152602001908152602001600020905080600101549250505092915050565b6123c38561227d565b612402576040517f08c379a00000000000000000000000000000000000000000000000000000000081526004016123f990614043565b60405180910390fd5b600080600087815260200190815260200160002090506124223387611628565b612461576040517f08c379a0000000000000000000000000000000000000000000000000000000008152600401612458906141ad565b60405180910390fd5b600085116124a4576040517f08c379a000000000000000000000000000000000000000000000000000000000815260040161249b906147c3565b60405180910390fd5b6000600182600601546124b79190614449565b9050600080600089815260200190815260200160002060050160008381526020019081526020016000209050818160000181905550338160010160006101000a81548173ffffffffffffffffffffffffffffffffffffffff021916908373ffffffffffffffffffffffffffffffffffffffff160217905550868160020181905550858160030160006101000a81548173ffffffffffffffffffffffffffffffffffffffff021916908373ffffffffffffffffffffffffffffffffffffffff1602179055506040518060400160405280600781526020017f50656e64696e67000000000000000000000000000000000000000000000000008152508160040190805190602001906125c892919061303e565b50848160050190805190602001906125e192919061303e565b50600081600601819055506000816007018190555042816008018190555061012c4261260d9190614449565b81600901819055508381600a01908051906020019061262d92919061303e565b506040518060400160405280600a81526020017f494e2050726f636573730000000000000000000000000000000000000000000081525081600b01908051906020019061267b92919061303e565b506040518060400160405280600a81526020017f494e2d50726f636573730000000000000000000000000000000000000000000081525081600c0190805190602001906126c992919061303e565b50600081600f01819055506040518060400160405280600a81526020017f494e2d50726f636573730000000000000000000000000000000000000000000081525081600e01908051906020019061272192919061303e565b506040518060400160405280600b81526020017f556e2d566572696669656400000000000000000000000000000000000000000081525081600d01908051906020019061276f92919061303e565b508183600601819055505050505050505050565b6000806000848152602001908152602001600020600501600083815260200190815260200160002090506040518060400160405280600881526020017f566572696669656400000000000000000000000000000000000000000000000081525081600d0190805190602001906127fa92919061303e565b50505050565b6128086130c4565b6128118261227d565b612850576040517f08c379a000000000000000000000000000000000000000000000000000000000815260040161284790614043565b60405180910390fd5b6000806000848152602001908152602001600020905060006040518061010001604052808360000154815260200183600101805461288d90613f1e565b80601f01602080910402602001604051908101604052809291908181526020018280546128b990613f1e565b80156129065780601f106128db57610100808354040283529160200191612906565b820191906000526020600020905b8154815290600101906020018083116128e957829003601f168201915b5050505050815260200183600301548152602001836006015481526020018360040154815260200183600701805461293d90613f1e565b80601f016020809104026020016040519081016040528092919081815260200182805461296990613f1e565b80156129b65780601f1061298b576101008083540402835291602001916129b6565b820191906000526020600020905b81548152906001019060200180831161299957829003601f168201915b505050505081526020018360080180546129cf90613f1e565b80601f01602080910402602001604051908101604052809291908181526020018280546129fb90613f1e565b8015612a485780601f10612a1d57610100808354040283529160200191612a48565b820191906000526020600020905b815481529060010190602001808311612a2b57829003601f168201915b50505050508152602001836009015481525090508092505050919050565b6000606360008084815260200190815260200160002060030154109050919050565b612a918161227d565b612ad0576040517f08c379a0000000000000000000000000000000000000000000000000000000008152600401612ac790614731565b60405180910390fd5b60008060008381526020019081526020016000209050612aef82612a66565b612b2e576040517f08c379a0000000000000000000000000000000000000000000000000000000008152600401612b2590614855565b60405180910390fd5b612b383383611628565b15612b78576040517f08c379a0000000000000000000000000000000000000000000000000000000008152600401612b6f906148e7565b60405180910390fd5b600060405180604001604052803373ffffffffffffffffffffffffffffffffffffffff16815260200160008152509050808260020160003373ffffffffffffffffffffffffffffffffffffffff1673ffffffffffffffffffffffffffffffffffffffff16815260200190815260200160002060008201518160000160006101000a81548173ffffffffffffffffffffffffffffffffffffffff021916908373ffffffffffffffffffffffffffffffffffffffff160217905550602082015181600101559050506001826003016000828254612c539190614449565b92505081905550505050565b612c688261227d565b612ca7576040517f08c379a0000000000000000000000000000000000000000000000000000000008152600401612c9e90614043565b60405180910390fd5b612cb18183612e96565b612cf0576040517f08c379a0000000000000000000000000000000000000000000000000000000008152600401612ce7906140af565b60405180910390fd5b612cfa8282612ecd565b15612d3a576040517f08c379a0000000000000000000000000000000000000000000000000000000008152600401612d3190614141565b60405180910390fd5b6000806000848152602001908152602001600020600501600083815260200190815260200160002090506040518060400160405280600781526020017f50656e64696e67000000000000000000000000000000000000000000000000008152508051906020012081600401604051612db2919061463c565b604051809103902014612dfa576040517f08c379a0000000000000000000000000000000000000000000000000000000008152600401612df190614979565b60405180910390fd5b612e048383612f08565b612e43576040517f08c379a0000000000000000000000000000000000000000000000000000000008152600401612e3a90614a0b565b60405180910390fd5b6040518060400160405280600681526020017f436c6f7365640000000000000000000000000000000000000000000000000000815250816004019080519060200190612e9092919061303e565b50505050565b6000806000808481526020019081526020016000206005016000858152602001908152602001600020600001541415905092915050565b600080600080858152602001908152602001600020600501600084815260200190815260200160002090504281600901541191505092915050565b6000806000808581526020019081526020016000209050600081600501600085815260200190815260200160002090508060010160009054906101000a900473ffffffffffffffffffffffffffffffffffffffff1673ffffffffffffffffffffffffffffffffffffffff163373ffffffffffffffffffffffffffffffffffffffff16149250505092915050565b60405180610200016040528060008152602001600073ffffffffffffffffffffffffffffffffffffffff16815260200160008152602001600073ffffffffffffffffffffffffffffffffffffffff1681526020016060815260200160608152602001600081526020016000815260200160008152602001600081526020016060815260200160608152602001606081526020016060815260200160608152602001600081525090565b82805461304a90613f1e565b90600052602060002090601f01602090048101928261306c57600085556130b3565b82601f1061308557805160ff19168380011785556130b3565b828001600101855582156130b3579182015b828111156130b2578251825591602001919060010190613097565b5b5090506130c09190613109565b5090565b60405180610100016040528060008152602001606081526020016000815260200160008152602001600081526020016060815260200160608152602001600081525090565b5b8082111561312257600081600090555060010161310a565b5090565b6000604051905090565b600080fd5b600080fd5b6000819050919050565b61314d8161313a565b811461315857600080fd5b50565b60008135905061316a81613144565b92915050565b60006020828403121561318657613185613130565b5b60006131948482850161315b565b91505092915050565b600081519050919050565b600082825260208201905092915050565b6000819050602082019050919050565b6131d28161313a565b82525050565b600073ffffffffffffffffffffffffffffffffffffffff82169050919050565b6000613203826131d8565b9050919050565b613213816131f8565b82525050565b600081519050919050565b600082825260208201905092915050565b60005b83811015613253578082015181840152602081019050613238565b83811115613262576000848401525b50505050565b6000601f19601f8301169050919050565b600061328482613219565b61328e8185613224565b935061329e818560208601613235565b6132a781613268565b840191505092915050565b6000610200830160008301516132cb60008601826131c9565b5060208301516132de602086018261320a565b5060408301516132f160408601826131c9565b506060830151613304606086018261320a565b506080830151848203608086015261331c8282613279565b91505060a083015184820360a08601526133368282613279565b91505060c083015161334b60c08601826131c9565b5060e083015161335e60e08601826131c9565b506101008301516133736101008601826131c9565b506101208301516133886101208601826131c9565b506101408301518482036101408601526133a28282613279565b9150506101608301518482036101608601526133be8282613279565b9150506101808301518482036101808601526133da8282613279565b9150506101a08301518482036101a08601526133f68282613279565b9150506101c08301518482036101c08601526134128282613279565b9150506101e08301516134296101e08601826131c9565b508091505092915050565b600061344083836132b2565b905092915050565b6000602082019050919050565b60006134608261319d565b61346a81856131a8565b93508360208202850161347c856131b9565b8060005b858110156134b857848403895281516134998582613434565b94506134a483613448565b925060208a01995050600181019050613480565b50829750879550505050505092915050565b600060208201905081810360008301526134e48184613455565b905092915050565b6134f5816131f8565b811461350057600080fd5b50565b600081359050613512816134ec565b92915050565b60008060006060848603121561353157613530613130565b5b600061353f86828701613503565b93505060206135508682870161315b565b92505060406135618682870161315b565b9150509250925092565b60008115159050919050565b6135808161356b565b82525050565b600060208201905061359b6000830184613577565b92915050565b600080fd5b600080fd5b7f4e487b7100000000000000000000000000000000000000000000000000000000600052604160045260246000fd5b6135e382613268565b810181811067ffffffffffffffff82111715613602576136016135ab565b5b80604052505050565b6000613615613126565b905061362182826135da565b919050565b600067ffffffffffffffff821115613641576136406135ab565b5b61364a82613268565b9050602081019050919050565b82818337600083830152505050565b600061367961367484613626565b61360b565b905082815260208101848484011115613695576136946135a6565b5b6136a0848285613657565b509392505050565b600082601f8301126136bd576136bc6135a1565b5b81356136cd848260208601613666565b91505092915050565b600080600080608085870312156136f0576136ef613130565b5b60006136fe8782880161315b565b945050602061370f8782880161315b565b93505060406137208782880161315b565b925050606085013567ffffffffffffffff81111561374157613740613135565b5b61374d878288016136a8565b91505092959194509250565b600080604083850312156137705761376f613130565b5b600061377e8582860161315b565b925050602061378f8582860161315b565b9150509250929050565b6000610200830160008301516137b260008601826131c9565b5060208301516137c5602086018261320a565b5060408301516137d860408601826131c9565b5060608301516137eb606086018261320a565b50608083015184820360808601526138038282613279565b91505060a083015184820360a086015261381d8282613279565b91505060c083015161383260c08601826131c9565b5060e083015161384560e08601826131c9565b5061010083015161385a6101008601826131c9565b5061012083015161386f6101208601826131c9565b506101408301518482036101408601526138898282613279565b9150506101608301518482036101608601526138a58282613279565b9150506101808301518482036101808601526138c18282613279565b9150506101a08301518482036101a08601526138dd8282613279565b9150506101c08301518482036101c08601526138f98282613279565b9150506101e08301516139106101e08601826131c9565b508091505092915050565b600060208201905081810360008301526139358184613799565b905092915050565b6000806040838503121561395457613953613130565b5b600061396285828601613503565b92505060206139738582860161315b565b9150509250929050565b6000806040838503121561399457613993613130565b5b600083013567ffffffffffffffff8111156139b2576139b1613135565b5b6139be858286016136a8565b925050602083013567ffffffffffffffff8111156139df576139de613135565b5b6139eb858286016136a8565b9150509250929050565b6139fe8161313a565b82525050565b6000602082019050613a1960008301846139f5565b92915050565b600081519050919050565b600082825260208201905092915050565b6000819050602082019050919050565b600061010083016000830151613a6460008601826131c9565b5060208301518482036020860152613a7c8282613279565b9150506040830151613a9160408601826131c9565b506060830151613aa460608601826131c9565b506080830151613ab760808601826131c9565b5060a083015184820360a0860152613acf8282613279565b91505060c083015184820360c0860152613ae98282613279565b91505060e0830151613afe60e08601826131c9565b508091505092915050565b6000613b158383613a4b565b905092915050565b6000602082019050919050565b6000613b3582613a1f565b613b3f8185613a2a565b935083602082028501613b5185613a3b565b8060005b85811015613b8d5784840389528151613b6e8582613b09565b9450613b7983613b1d565b925060208a01995050600181019050613b55565b50829750879550505050505092915050565b60006020820190508181036000830152613bb98184613b2a565b905092915050565b613bca8161356b565b8114613bd557600080fd5b50565b600081359050613be781613bc1565b92915050565b600080600060608486031215613c0657613c05613130565b5b6000613c148682870161315b565b9350506020613c258682870161315b565b9250506040613c3686828701613bd8565b9150509250925092565b60008060008060808587031215613c5a57613c59613130565b5b6000613c688782880161315b565b9450506020613c798782880161315b565b935050604085013567ffffffffffffffff811115613c9a57613c99613135565b5b613ca6878288016136a8565b925050606085013567ffffffffffffffff811115613cc757613cc6613135565b5b613cd3878288016136a8565b91505092959194509250565b600080600080600060a08688031215613cfb57613cfa613130565b5b6000613d098882890161315b565b9550506020613d1a8882890161315b565b9450506040613d2b88828901613503565b935050606086013567ffffffffffffffff811115613d4c57613d4b613135565b5b613d58888289016136a8565b925050608086013567ffffffffffffffff811115613d7957613d78613135565b5b613d85888289016136a8565b9150509295509295909350565b600061010083016000830151613dab60008601826131c9565b5060208301518482036020860152613dc38282613279565b9150506040830151613dd860408601826131c9565b506060830151613deb60608601826131c9565b506080830151613dfe60808601826131c9565b5060a083015184820360a0860152613e168282613279565b91505060c083015184820360c0860152613e308282613279565b91505060e0830151613e4560e08601826131c9565b508091505092915050565b60006020820190508181036000830152613e6a8184613d92565b905092915050565b600082825260208201905092915050565b7f436c756220646f6573206e6f7420657869737400000000000000000000000000600082015250565b6000613eb9601383613e72565b9150613ec482613e83565b602082019050919050565b60006020820190508181036000830152613ee881613eac565b9050919050565b7f4e487b7100000000000000000000000000000000000000000000000000000000600052602260045260246000fd5b60006002820490506001821680613f3657607f821691505b60208210811415613f4a57613f49613eef565b5b50919050565b7f4e487b7100000000000000000000000000000000000000000000000000000000600052603260045260246000fd5b7f4e487b7100000000000000000000000000000000000000000000000000000000600052601160045260246000fd5b6000613fb98261313a565b91507fffffffffffffffffffffffffffffffffffffffffffffffffffffffffffffffff821415613fec57613feb613f7f565b5b600182019050919050565b7f74686520636c756220646f6573206e6f74206578697374000000000000000000600082015250565b600061402d601783613e72565b915061403882613ff7565b602082019050919050565b6000602082019050818103600083015261405c81614020565b9050919050565b7f5468652070726f706f73616c20646f6573206e6f742065786973740000000000600082015250565b6000614099601b83613e72565b91506140a482614063565b602082019050919050565b600060208201905081810360008301526140c88161408c565b9050919050565b7f596f752063616e2774206265666f72652074686520566f74696e67206465616460008201527f6c696e6500000000000000000000000000000000000000000000000000000000602082015250565b600061412b602483613e72565b9150614136826140cf565b604082019050919050565b6000602082019050818103600083015261415a8161411e565b9050919050565b7f596f7520617265206e6f742061206d656d626572206f662074686520636c7562600082015250565b6000614197602083613e72565b91506141a282614161565b602082019050919050565b600060208201905081810360008301526141c68161418a565b9050919050565b7f4f6e6c79207468652063726561746f72206f66207468652070726f706f73616c60008201527f2063616e20657865637574652069740000000000000000000000000000000000602082015250565b6000614229602f83613e72565b9150614234826141cd565b604082019050919050565b600060208201905081810360008301526142588161421c565b9050919050565b7f54686520616d6f756e7420657863656564732074686520706f6f6c206f66207460008201527f686520636c756200000000000000000000000000000000000000000000000000602082015250565b60006142bb602783613e72565b91506142c68261425f565b604082019050919050565b600060208201905081810360008301526142ea816142ae565b9050919050565b7f5468652070726f706f73616c20686173206e6f74206265656e20617070726f7660008201527f6564000000000000000000000000000000000000000000000000000000000000602082015250565b600061434d602283613e72565b9150614358826142f1565b604082019050919050565b6000602082019050818103600083015261437c81614340565b9050919050565b600061438e8261313a565b91506143998361313a565b9250828210156143ac576143ab613f7f565b5b828203905092915050565b7f596f75206d7573742073656e642045564d4f5320746f20636f6e74726962757460008201527f6500000000000000000000000000000000000000000000000000000000000000602082015250565b6000614413602183613e72565b915061441e826143b7565b604082019050919050565b6000602082019050818103600083015261444281614406565b9050919050565b60006144548261313a565b915061445f8361313a565b9250827fffffffffffffffffffffffffffffffffffffffffffffffffffffffffffffffff0382111561449457614493613f7f565b5b828201905092915050565b7f566f74696e6720506572696f642046696e697368656400000000000000000000600082015250565b60006144d5601683613e72565b91506144e08261449f565b602082019050919050565b60006020820190508181036000830152614504816144c8565b9050919050565b7f596f75206861766520616c726561647920766f746564206f6e2074686973207060008201527f726f706f73616c00000000000000000000000000000000000000000000000000602082015250565b6000614567602783613e72565b91506145728261450b565b604082019050919050565b600060208201905081810360008301526145968161455a565b9050919050565b600081905092915050565b60008190508160005260206000209050919050565b600081546145ca81613f1e565b6145d4818661459d565b945060018216600081146145ef576001811461460057614633565b60ff19831686528186019350614633565b614609856145a8565b60005b8381101561462b5781548189015260018201915060208101905061460c565b838801955050505b50505092915050565b600061464882846145bd565b915081905092915050565b7f5468652070726f706f73616c206973206e6f206c6f6e6765722070656e64696e60008201527f6700000000000000000000000000000000000000000000000000000000000000602082015250565b60006146af602183613e72565b91506146ba82614653565b604082019050919050565b600060208201905081810360008301526146de816146a2565b9050919050565b7f54686520636c756220646f6573206e6f74206578697374000000000000000000600082015250565b600061471b601783613e72565b9150614726826146e5565b602082019050919050565b6000602082019050818103600083015261474a8161470e565b9050919050565b7f54686520616d6f756e74206f66207468652070726f706f73616c206d7573742060008201527f62652067726561746572207468616e2030000000000000000000000000000000602082015250565b60006147ad603183613e72565b91506147b882614751565b604082019050919050565b600060208201905081810360008301526147dc816147a0565b9050919050565b7f54686520636c75622069732066756c6c2c206e6f206d6f7265206d656d62657260008201527f732063616e206265206164646564000000000000000000000000000000000000602082015250565b600061483f602e83613e72565b915061484a826147e3565b604082019050919050565b6000602082019050818103600083015261486e81614832565b9050919050565b7f596f752061726520616c72656164792061206d656d626572206f66207468652060008201527f636c756200000000000000000000000000000000000000000000000000000000602082015250565b60006148d1602483613e72565b91506148dc82614875565b604082019050919050565b60006020820190508181036000830152614900816148c4565b9050919050565b7f5468652070726f706f73616c206973206e6f7420696e2070656e64696e67207360008201527f7461747573000000000000000000000000000000000000000000000000000000602082015250565b6000614963602583613e72565b915061496e82614907565b604082019050919050565b6000602082019050818103600083015261499281614956565b9050919050565b7f4f6e6c79207468652070726f706f73616c2063726561746f722063616e20636c60008201527f6f7365207468652070726f706f73616c00000000000000000000000000000000602082015250565b60006149f5603083613e72565b9150614a0082614999565b604082019050919050565b60006020820190508181036000830152614a24816149e8565b905091905056fea2646970667358221220c5cc904f6bf2915ea0aecd626f421c580b0d1b28d6280ccb8d51cc20dddb3bd564736f6c634300080a0033",
  "linkReferences": {},
  "deployedLinkReferences": {}
}